:040000008A11112828
:10000800FE00030EF4000408F5000A08F600831247
:1000180003137F08F7008A1113288A119E280C1CE5
:10002800322864300C10FC0A7C02031C3228013090
:100038008506FC0179087804031928280130F8029C
:100048000030031CF903F9027B087A0403193228EB
:100058000130FA020030031CFB03FB020D1D392896
:1000680001300D1145208A11452077088312FF00C1
:1000780076088A0075088400740E8300FE0E7E0ED2
:10008800090083121E08F300F20183161E08F20409
:100098007308F1007208F0000800080083160510C4
:1000A800851085110511051383120515051483168E
:1000B8000615861406168A11BC208A118A11B220E8
:1000C8008A118A11CC208A1103308312A0000D30C6
:1000D8008A117D208A118A11C4208A118A119220DE
:1000E8008A118A11A8208A118A11C9208A116400EC
:1000F8007B28A2009F01A1000310A10D0310210D70
:100108009F042008A100A10CA10C210CC039831662
:100118009F0483121F1483160D15080002308312E2
:100128009C00A0309D0080309B0083168615061623
:10013800861208000D30F801F901FA01FB01FC01F3
:10014800FD0083018A11522810309C0090309D00D8
:1001580080309B008513061786170800CF300313DD
:100168008F002C308E00E130900083160C140800AC
:1001780080308312031788008801881F0800C1286F
:1001880007140F3088000715080083129F14080011
:060198008B170B17080095
:06400000FF2FDE3FF83F38
:00000001FF
