:040000008A11112828
:10000800FE00030EF9000408FA000A08FB00831238
:1000180003137F08FC008A1113288A113A2D0C1C3F
:10002800512864300C10B40AAC0A2C02031C512865
:10003800AC0121082004031927280130A002003050
:10004800031CA103A1022508240403193128013047
:10005800A4020030031CA503A5028316210820046E
:1000680003193C280130A0020030031CA103A1029F
:10007800831227082604031947280130A6020030F6
:10008800031CA703A70223082204031951280130DF
:10009800A2020030031CA303A3020D1D6C2801302B
:1000A8000D1184208A1159080C3A031D6328792000
:1000B8008A117108F7007008F6000C306A28792058
:1000C8008A117108F7007008F6000D30F8008720D3
:1000D8007C0883120313FF007B088A007A088400D7
:1000E800790E8300FE0E7E0E09001E08F300F20151
:1000F80083161E08F2047308F1007208F000080065
:10010800F000AD00080078080C3A031D0A290330F6
:100118007D020318042903107D0DBC3EEC218A11D1
:10012800FD0A7D08033A031D0800BC30FD015D216E
:100138008A117108A9007008A8002B082902031D5C
:10014800A7282A082802031CB1282908CD00280856
:10015800CC002A08CC022B08B8282B08CD002A0886
:10016800CC002808CC022908031CCD03CD0229089D
:10017800CF002808CE002A08CE070318CF0A2B087C
:10018800CF070310CF0CCE0C4C08CE070318CF0AAC
:100198004D08CF07013083162B02913003192A022C
:1001A800031CDB2890308312CE000130CF0083126D
:1001B8002908AB002808AA0001304F02393003197A
:1001C8004E02031CE928DA0AF02801304F023830C1
:1001D80003194E02031CDA03FA305A02031CF628EC
:1001E800F930DA004B305A020318FC284B30DA0099
:1001F8003208013A031D02299630DA005A08E32929
:10020800FD0103107D0DBC3EEC21080078080D3A75
:10021800031D1F29083083123B02031819290310F4
:100228003B0DAC3EEC21BB0A0800BB0103103B0DA3
:10023800AC3EEC21080078080E3A031D342903303F
:1002480083123C0203182E2903103C0DC23EEC21F8
:10025800BC0A0800BC0103103C0DAC3EEC210800B0
:10026800FD018312BB01BC01D001D101831203132C
:100278000310500DBC3E840083130A228A11AC3E41
:1002880084000A228A11C23E84008001840A800107
:10029800D00A0319D10A5108803AFF0080307F0242
:1002A800031D582903305002031808003A29320860
:1002B80008008312C100CA01BD01BE01BF01C0010F
:1002C800C801C901831203134108F4218A110310DC
:1002D800480DFC218A11C10AC10AC80A0319C90AB2
:1002E8004908803AFF0080307F02031D7D290330D2
:1002F8004802031C662983120313CA01CB01F301C8
:100308004A08023CF200031CF3037308803A803C5D
:10031800031D902972084B020318C5298312031381
:1003280003104B0D423EF4218A1104228A11000861
:10033800F400840A0008F50073087502031DA62955
:10034800720874020318C32903104B0D423E84003F
:100358000008BD00840A0008BE0004228A110008B3
:10036800F200840A0008F30003104B0DFC218A11E7
:1003780004228A113D088000840A3E088000CB0AC6
:100388008329831202300313CA0A4A02CB01031CD1
:100398008329CB0A03104B0D423EF4218A117208BF
:1003A800BF070318C00A7308C0070230CB0A4B0204
:1003B800031CCF294008F1003F08F0000800F000B6
:1003C8003A0603190800700895007008BA0008007A
:1003D8008400760883138000840A77088000080068
:1003E800840083130008F200840A0008F300080060
:1003F800423E840072088000840A73088000080066
:1004080003104B0D023E423E840008008001840A1E
:1004180080010310500D08008A11D3248A118A1113
:1004280004258A118A11DA258A118A11C1258A11AF
:100438008A11AF258A118A11E1258A1103308312A6
:10044800D2000C308A11B4248A113C308312D200B5
:10045800D3018A1178258A11F930D8006400D80BA5
:10046800322A362A64008A11CF248A1164008A113C
:1004780083248A118A11C9258A11003A03193A2A54
:100488008A11E4258A11A12B8A11A5258A11003A1F
:100498000319522A6330B700B8013A2A8A11C623D1
:1004A8008A11003058025B3003195702031C5F2A77
:1004B8008312B80A612A8312B80103303802031C78
:1004C8003A2AB801B701B70A3A2AF930D2004B30B4
:1004D8008A1125258A1100308A110C258A110130CC
:1004E8008A1115258A1100308A111D258A118A1151
:1004F800D6258A11F030D200D3018A116A258A11D3
:1005080002309D2B8A119B258A11003A03198E2AE5
:1005180063309D2B8A11C6238A1100305802C830D7
:100528000319570203189B2A8312B90A9D2A8312BA
:10053800B90102303902031C3A2A0330B9019D2B54
:100548008A11D2258A11B430D200D3018A115C25D0
:100558008A1104309D2B8A1191258A11003A031DB6
:100568008C2A8A11C6238A11003058024B3003198D
:1005780057020318C22A8312B50AC42A8312B50186
:1005880002303502031C3A2A0530B5019D2B8A1129
:10059800CE258A117830D200D3018A114E258A11CE
:1005A80001308A110C258A1100308A1115258A110B
:1005B80001308A111D258A1106309D2B8A11C62308
:1005C8008A115808DC005708DB008A1186258A1131
:1005D800003A031D8C2A003083165C02563003193A
:1005E8005B02031C062B003025020230031924028B
:1005F8000318012BA40A0319A50AA801A901A60139
:10060800A701082BA401A501003025020230031917
:1006180024020030031C212B8A110C258A11013079
:100628008A1115258A1100308A111D258A11831611
:10063800A401A501A801A9013A2A5C024B300319BB
:100648005B020318322B00302902023003192802FA
:100658000318362BA80A0319A90A362BA801A901E1
:10066800A601A70100302902023003192802031C41
:100678003A2A01308A110C258A1100308A11152571
:100688008A1101308A111D258A11003083165C02F7
:10069800193003195B020318552BA60A0319A70A78
:1006A800572BA601A701003027020630031926029E
:1006B800031C3A2A8A11E6258A113A2A00308A113F
:1006C8000C258A1100308A1115258A1101308A11EA
:1006D8001D258A1101308A11DE258A1164309D2B6F
:1006E8000030831623020630031922020318802BD8
:1006F800A20A0319A30A3A2A6530A201A3018312A8
:100708009D2B8A11C6238A115808DA005708D90088
:1007180000305A02333003195902031C962B8312F6
:10072800B60A982B8312B60105303602031C3A2A02
:100738006630B7003A2AB7015E2B3708003A03192A
:10074800482A013A0319692A033A0319862A013A01
:100758000319A42A073A0319AF2A013A0319CB2A25
:10076800033A0319E22A653A0319622B073A031977
:10077800742B013A0319852B033A03199F2B682A16
:100788008A111128AC30D02353088316D80083125D
:1007980052088316D70008008316C800D501C9017E
:1007A800CA01CB01CC01D301D40183160313480835
:1007B8008400831367248A1183160310530D6E2453
:1007C8008A11C80AC80AD30A0319D40A5408803AF5
:1007D800FF0080307F02031DF32B03305302031CFC
:1007E800D92B83160313D501D6018312D50183169D
:1007F8005508023C8312D400031CD5035508803ADF
:10080800803C031D0A2C5408831656020318412CF9
:10081800831603130310560DCD3E840083136724FB
:100828008A11831678248A1100088312D600840A54
:100838000008D70055085702031D242C54085602F7
:1008480003183E2C83167E248A110008C900840AE6
:100858000008CA0078248A1167248A1183160310B5
:10086800560D6E248A1178248A1149088000840A5A
:100878004A0880008316D60AF92B83160230031320
:10088800D50A55020318592CF82B7E248A1167249F
:100898008A1154088316CB070318CC0A831255080B
:1008A8008316CC07D60A0319492C4C088312D300A7
:1008B80083164B088312D2000310D30CD20C0310FA
:1008C800D30CD20C080000088312D400840A000854
:1008D800D5000800CD3E8400831254088000840AA5
:1008E80055088000831608000310560D023ECD3EC1
:1008F800840008000310560DCD3E8400080099249A
:100908008A11003A0319080000309D248A11A02496
:100918008A1159080C3A0330D200031D952C0C306B
:10092800962C0D30B4248A11CF2C831203132D0872
:100938000800D200AD000800033033020318080095
:100948000330B30A3302031C0800B30159080C3AF8
:10095800031DB12C0D30D90008000C30D900080057
:10096800D40040309F005408D3000310D30D031067
:10097800530D9F04353083169F0083125208D3000D
:10098800D30CD30C530CC03983169F0483121F1445
:1009980083160D150800831203139F140800E92419
:1009A8008A110030DD248A110030EE248A110030CB
:1009B800F92C83120313D20052080319E62C83166C
:1009C8008615080083168611080006158316031776
:1009D800081508008312D20052080319F62C831652
:1009E800061608008316061208008312D200520861
:1009F8000319012D8316861608008316861208002F
:100A080001300C258A11003015258A1101301D2D61
:100A18008312D20052080319132D86150800861177
:100A28000800D200520803191B2D061608000612EA
:100A38000800D20052080319232D861608008612D2
:100A48000800D300F030970504309200520883164E
:100A58009200831253089500970183160C300611F3
:100A68000317081183120313970408002030FD01AF
:100A7800831384003D308A11B9258A11A03084007F
:100A8800C8308A11B9250C30D9004B30DA008301FF
:100A98008A11102A23082204031D0800AF08031D29
:100AA80008005308A3005208A200AF01AF0A0800CB
:100AB80025082404031D0800B008031D0800530876
:100AC800A5005208A400B001B00A080021082004BB
:100AD800031D0800AE08031D08005308A1005208B2
:100AE800A000AE01AE0A080027082604031D08006E
:100AF800B108031D08005308A7005208A600B10159
:100B0800B10A0800831223082204031D00342F08A9
:100B1800031900340130AF01080025082404031D1F
:100B280000343008031900340130B00108002108EE
:100B38002004031D00342E08031900340130AE01CF
:100B4800080027082604031D00343108031900345F
:100B58000130B1010800CF3003138F002C308E0014
:100B6800E130900083160C14080064008001840AA8
:100B78000406031900340406BA2D803083120317C3
:100B880088008801881F0800C62D0A30340203181F
:100B980001340034A401A501B0010800A001A1019D
:100BA800AE010800A601A701B101080083160614CA
:100BB80086140800D200B20008008B170B17080033
:060BC800B4010800E62D57
:06400000FF0FDE3FF83F58
:00000001FF
