:040000008A11112828
:10000800FE00030EF9000408FA000A08FB00831238
:1000180003137F08FC008A118E2B8A11B22D8316D8
:100028000510851005118511061086100513861315
:1000380006138A11CB258A11031306158517061690
:100048008A113F268A118A112D268A118A116F2654
:100058008A1103308312A0000E308A117E258A117E
:100068008A116A268A118A1122268A118A115F2624
:100078008A118A1193258A1164008A1139258A11F7
:100088008A1159268A11003A031940288A117226C2
:100098008A11712B8A1181248A11073047029F30F7
:1000A80003194602031C5A28EB0A5B28EB010530AA
:1000B8006B02031C4028EB01CB01CB0A40288A11B4
:1000C80081248A11073047029F3003194602031C16
:1000D80071280230CB00EA0140280330EA0A6A029C
:1000E800031C4028EA018A1196258A114028053008
:1000F8000517630203188228E30A40280330E30146
:10010800E92A8A1177248A110030470273300319CB
:10011800460203189228D501E00A9428D50AE0017E
:1001280003305502031C9B280430D501B328033043
:100138006002031CB4288A1177248A110030470210
:100148006930031946020318AB28E60AAC28E60111
:1001580003306602031CB4280830E001E601CB0036
:100168004B08083A0319BC284B08043A031D4028D9
:10017800E601D501E00140285830A0000230A10076
:100188008A1108268A1105308312CB00C90140283C
:100198008A1153268A11003A03198E2A8312C90834
:1001A800031D8E2A0930CB00C901C90A40288A11CB
:1001B80065268A118312CC01CC0A40288A116E2444
:1001C8008A11073047027730031946020318EE28D0
:1001D800CD0115298A116E248A110830470213307F
:1001E800031946020318FB28CD01CD0A15298A11E7
:1001F8006E248A11083047029C30031946020318FE
:100208000729023014298A116E248A1109304702FD
:100218002430031946020318132903301429043023
:10022800CD00023045290614CE0A40280530560272
:10023800031C21290514D6011829D60A402805309F
:100248005602031C212985141F2905305602031C58
:10025800212905151F2905305602031C212985155A
:100268001F2905305602031C212906100510851088
:10027800051185111F29560803192129D601CE0118
:100288000330CC0040284E088400073004020318CD
:10029800402805308A000310040DDE3E8200061453
:1002A800CF0A402805305702031C5D290514D701E1
:1002B8005429D70A402805305702031C5D298514A4
:1002C8005B2905305702031C5D2905155B2905309C
:1002D8005702031C5D2985155B2905305702031C4D
:1002E8005D2905108510051185115B29570803192B
:1002F8005D29D701CF0144294F0884000730040243
:100308000318402805308A000310040DEC3E8200D3
:1003180006140514D00A402805305802031C9729F2
:100328008514D8018E29D80A402805305802031CA4
:1003380097290515952905305802031C9729851515
:10034800952905305802031C972985100511851138
:100358009529580803199729D801D001442950082C
:100368008400063004020318402806308A0003106F
:10037800040D163E8200061405148514D10A40287F
:1003880005305902031CCB290515D901C229D90A00
:10039800402805305902031CCB298515C929053089
:1003A8005902031CCB2905118511C92959080319BC
:1003B800CB29D901D10144295108003A0319BF2991
:1003C800013A0319C429033A0319CD29013A03193B
:1003D800D329073A0319DA29622806140514851463
:1003E8000515D20A402805305A02031CFE29851536
:1003F800DA01F529DA0A402805305A02031CFE29D9
:100408008511FC295A080319FE29DA01D201442969
:100418005208003A0319F129013A0319F729033A56
:100428000319002A013A0319062A62284D08003ADE
:1004380003194729013A03198029033A0319B329F3
:10044800013A0319E029073A03190C2A62288A118C
:100458004D268A11003A0319DE288312E408031D89
:10046800382A0513E40A4028E508031D432A8316A1
:1004780003170813831203130617E50A40280330ED
:100488005B020318492ADB0A40288A1181248A1151
:100498000A304702F13003194602031C562ADC0AC7
:1004A800DE01582ADE01DC0A03305C02031C5E2AE6
:1004B800DD01DD0A5D080319632A0F30672A5F082A
:1004C80003196C2A07308316880004308312CC0085
:1004D8004C08043A031D4028DC01DE01DD01DF0180
:1004E800E501E401DB0140280330670203187E2A96
:1004F800E70A4028033053020318882AD30A06174C
:100508008316031708174028D301E701CB01CB0A4C
:10051800CC01402883124C08003A0319DB28013A21
:100528000319E228033A03191A2A013A03192B2A54
:10053800073A0319782A6228861783163C3003176E
:10054800881783120313A000A1018A11FA258A11C2
:10055800831206140514851405158515CA01CA0ADF
:100568004028C83054020318BB2AD40A4028023055
:10057800D401CA00051340288A1147268A11003A77
:100588000319C92A83120930E82A8A1177248A11A3
:10059800003047027330031946020318D62AE801CF
:1005A800E10AD82AE80AE10105306802031CEB2AAF
:1005B800E8018316031788138312031386138A111D
:1005C800AB258A1183120230CA01CB0040280530BE
:1005D8006102031C40288A1181248A1107304702CE
:1005E8009E3003194602031CFC2AE90AE201FE2A8E
:1005F800E901E20A05306902031C042BE9014028DD
:1006080005306202031C40288A1196258A1183123C
:10061800CB01CB0ACA0140284A08003A0319A02A8C
:10062800013A0319B52A033A0319C02A622883122A
:1006380006108610051085100511851183160317FD
:10064800081383120313061705138316AA01AA0AAF
:1006580040288A1181248A1103304702E93003199E
:10066800460203183A2B8316A90A3C2B8316A901C4
:100678000A302902031C40280230AA00A901402898
:100688008A1181248A11073047029E3003194602D5
:10069800031C512B8316AB0A532B8316AB01033073
:1006A8002B02031C4028AA01AB018A11A2258A113A
:1006B8000F3088008A11CB258A1183120313CB01CE
:1006C800642B83162A08003A03191B2B013A0319D5
:1006D8002D2B033A0319442B622883124B08003A46
:1006E80003194E28013A03196328033A03197B2892
:1006F800013A03198528073A0319C028013A031952
:10070800CC280D3A0319102B013A0319652B6228DE
:100718008A1111280C1CB72B0C1083166430A80AF8
:10072800A60A2602031CB72BA601210820040319D8
:10073800A32B0130A0020030031CA103A10223084F
:1007480022040319AD2B0130A2020030031CA303BD
:10075800A302250824040319B72B0130A402003092
:10076800031CA503A50283120D1DDF2B01300D11FB
:100778005A248A1183126E08053A031DCB2BEC23E9
:100788008A117108F5007008F4000530DD2B6E0B36
:10079800D62BEC238A117108F5007008F400F601D5
:1007A800F60ADE2BEC238A117108F5007008F400B4
:1007B8000E30F600F7237C0883120313FF007B0832
:1007C8008A007A088400790E8300FE0E7E0E0900E6
:1007D8001E08F300F20183161E08F2047308F100E4
:1007E8007208F0000800760B092C0C307D02031803
:1007F800032C03107D0DAC3E5E24FD0A0800FD01AC
:1008080003107D0DAC3E5E2408007608053A031DF2
:100818001E2C0C3083126D020318182C03106D0D5A
:10082800C43E5E24ED0A0800ED0103106D0DC43EC0
:100838005E24080076080E3A031D392C0C3083120A
:100848006C020318332C03106C0D903E840074085E
:1008580083178000840A75088000EC0A0800EC0100
:1008680003106C0DC43E5E240800FD018312ED01E7
:10087800EC01F701F8010310770DAC3E84008313F7
:10088800800166248A1166248A11840A8001F70A85
:100898000319F80A7808803AFF0080307F02031DA8
:1008A800572C0C307702031808003F2CF0008316F1
:1008B800A70008008400740883138000840A750860
:1008C80080000800840A80010310770DC43E84006C
:1008D80080010800C430A000A1018C242108C700B1
:1008E8002008C6000800AC308312A000A1018C24A7
:1008F8002108C7002008C600080090308312A00015
:100908000130A1008C242108C7002008C600080077
:10091800C401BE01BF01C001C101C201C3018312EC
:100928000313200884008317211C831300082D2536
:100938008A11420D263E8400220883138000840A0F
:10094800230880000230A0070318A10AC20A03196D
:10095800C30A4308803AFF0080307F02031DB62C8B
:100968000C304202031C932C83120313C401C501EB
:10097800A30144080B3CA200031CA3032308803AEC
:10098800803C031DC92C220845020318FE2C831243
:100998000313031023258A1133258A110008A400A4
:1009A800840A0008A50023082502031DDD2C22085F
:1009B80024020318FC2C0310450D263E8400000871
:1009C800BE00840A0008BF0033258A1100082D25BF
:1009D8008A11450D263E840022088000840A2308D7
:1009E800800033258A113E088000840A3F08800071
:1009F800C50ABC2C83120B300313C40A4402031C1F
:100A0800BB2C0230C500031023258A112208C00719
:100A18000318C10A2308C1070A30C50A4502031C86
:100A2800082D4108A1004008A0000310A10CA00C4B
:100A38000310A10CA00C0310A10CA00C0800450D7C
:100A4800263E840083130008A200840A0008A3003D
:100A58000800A200840A0008A3000310080003107D
:100A6800450D023E263E8400080057258A11003AAB
:100A78000319080000305B258A1160258A116E0869
:100A8800053A031D4B2D0330A0000530542D6E0B85
:100A9800512D0330A0000130542D0330A0000E303A
:100AA8007E258A11932D83160313270808008312C5
:100AB800A0008316A70008000C3083124802031810
:100AC80008000C30C80A4802031C0800C8016E0858
:100AD8000E3A031D722DEE01EE0A08006E08053A63
:100AE800031D792D0E30EE0008006E0B762D0530B3
:100AF800EE000800A2009F01A1000310A10D031041
:100B0800210D9F042008A100A10CA10C210CC039C3
:100B180083169F0483121F1483160D150800831271
:100B28009F140800061005108510051185118316FD
:100B380003178813831203138613A22DA7258A117E
:100B4800AB258A11AF2D8316A001A10108008316D9
:100B5800A201A3010800A401A50108004830FD0175
:100B6800831384006E308A1137268A11A0308400DE
:100B7800DC308A1137268A11903083178400A83018
:100B88008A1137260E30EE0083018A11132883124A
:100B98000617831603170817831203130510851009
:100BA800051185110610861405138613831603177D
:100BB800881308008A1117298A111A298A112329EA
:100BC8008A1129298A112F298A1135298A113F2941
:100BD8008A1153298A1156298A115F298A11652990
:100BE8008A116B298A1171298A117A298316230897
:100BF8002204031D0800831221088316A300831210
:100C080020088316A2000800831621082004031D6B
:100C18000800831221088316A10083122008831676
:100C2800A00008008A118C298A1190298A11992913
:100C38008A119F298A11A5298A11AD2902308312A8
:100C48009C00A0309D0080309B008316861586127C
:100C58000800CF3003138F002C308E00E130900055
:100C680083160C14080064008001840A0406031922
:100C780000340406382E8030831203178800880158
:100C8800881F0800442E8316230822040319013400
:100C9800003483162508240403190134003483160C
:100CA800210820040319013400340A30831628026D
:100CB80003180134003410309C009D0080309B00E4
:100CC800080014308316A400A501080007140F308B
:100CD8008800071508008B170B170800A8010800E3
:06400000FF2FDE3FF83F38
:00000001FF
