:040000008A11112828
:10000800FE00030E83120313BF000408C0000A0891
:10001800C1007F08C2008A1113288A115E2D0C1CAA
:100028004F2864300C10DF0AD70A5702031C4F28E8
:10003800D70144084304031927280130C3020030BC
:10004800031CC403C40248084704031931280130BB
:10005800C7020030031CC803C8024C084B0403192C
:100068003B280130CB020030031CCC03CC024A08E9
:100078004904031945280130C9020030031CCA038A
:10008800CA024608450403194F280130C50200304A
:10009800031CC603C6020D1D6B2801300D118320F9
:1000A8008A116308023A031D622878208A117108B0
:1000B800F7007008F6000230F8006A2878208A11E4
:1000C8007108F7007008F600F801F80A8620831214
:1000D80003134208FF0041088A00400884003F0ECD
:1000E8008300FE0E7E0E09001E08F300F20183163F
:1000F8001E08F2047308F1007208F0000800F0000E
:10010800D80008007808023A031D422903307D020E
:1001180003183C2903107D0DAB3E1A228A11FD0AF3
:100128007D08033A031D0800AB30FD0191218A11B7
:100138007108CE007008CD00E208031DB128E20165
:10014800E20A4E08D0004D08CF004E08D2004D08F4
:10015800D1004E08D4004D08D3005408B00053080D
:10016800AF000310B00CAF0C0310B00CAF0C52086A
:10017800B2005108B1000310B20CB10C0310B20C5C
:10018800B10C5008B4004F08B3000310B40CB30C02
:100198000310B40CB30C4E08B6004D08B50003109C
:1001A800B60CB50C0310B60CB50C33083507B70000
:1001B80034080318340A3607B80031083707B9007D
:1001C80032080318320A3807BA002F083907BB006B
:1001D80030080318300A3A07BC0051083B02BD003A
:1001E8005208031C520A3C02BE0053083D07F9009E
:1001F80054080318540A3E07FA0001305602913099
:1002080003195502031C0C299030F9000130FA003B
:100218005208D4005108D3005008D2004F08D1002A
:100228004E08D0004D08CF0001307A02283003195B
:100238007902031C2129E40A282901307A0227308F
:1002480003197902031CE403FA306402031C2E2903
:10025800F930E4004B306402031834294B30E400D1
:100268005D08013A031D3A299630E4006408172A0C
:10027800FD0103107D0DAB3E1A220800780B5529AD
:1002880003308312600203184F290310600DB13E3A
:100298001A22E00A0800E0010310600DB13E1A229C
:1002A800080078080E3A031D6A2903308312610298
:1002B800031864290310610DB73E1A22E10A0800E9
:1002C800E1010310610DB13E1A220800FD018312FD
:1002D800E001E101FB01FC0103107B0DAB3E840052
:1002E800831338228A11B13E840038228A11B73E1E
:1002F80084008001840A8001FB0A0319FC0A7C0837
:10030800803AFF0080307F02031D8C2903307B0276
:100318000318080070295D0808008312A400AD01C5
:10032800A001A101A201A301AB01AC018312031337
:10033800240822228A1103102B0D2A228A11A40ACA
:10034800A40AAB0A0319AC0A2C08803AFF008030D3
:100358007F02031DB12903302B02031C9A29831243
:100368000313AD01AE01F3012D08023CF200031C9A
:10037800F3037308803A803C031DC42972082E02D7
:100388000318F9298312031303102E0D253E222288
:100398008A1132228A110008F400840A0008F50044
:1003A80073087502031DDA29720874020318F72905
:1003B80003102E0D253E84000008A000840A0008C2
:1003C800A10032228A110008F200840A0008F30012
:1003D80003102E0D2A228A1132228A112008800049
:1003E800840A21088000AE0AB72983120230031359
:1003F800AD0A2D02AE01031CB729AE0A03102E0D5B
:10040800253E22228A117208A2070318A30A73083C
:10041800A3070230AE0A2E02031C032A2308F100A8
:100428002208F0000800F000950008008400760813
:1004380083138000840A77088000080084008313EF
:100448000008F200840A0008F3000800253E840032
:1004580072088000840A73088000080003102E0DBB
:10046800023E253E840008008001840A80010310B2
:100478007B0D08008A1107258A118A11DE248A114A
:100488008A110D268A118A11FC258A118A11EA25FA
:100498008A118A1111268A110330BD0002308A118F
:1004A800BE248A11B030BD000430BE008A11AB25CD
:1004B8008A11F9308316D4006400D40B602A642AA8
:1004C80064008A11DA248A11B12B8A11DF258A1176
:1004D800003A0319742A63308316A800A901B12BC6
:1004E8008A11E3238A11003053025B300319520248
:1004F800031C802AA90A812AA9011E302902031C8B
:10050800B12BA9018316A801A80AB12BF930BD00A7
:1005180096308A1148258A1100308A11E6248A11FA
:1005280001308A11F1248A1100308A11FC248A11C1
:100538008A1144258A11A0308316BD008C30BE0074
:100548008A1198258A110230842B8A11D4258A11A0
:10055800003A0319B12A6330842B8A11E3238A11E4
:1005680000305302C830031952020318BD2AAA0AE0
:10057800BE2AAA010A302A02031CB12B0330AA01A1
:10058800AB2B8A1136258A1130308316BD002A30EC
:10059800BE008A1185258A110430842B8A11C92549
:1005A8008A11003A031DAF2A8A11E3238A11003009
:1005B80053024130031952020318E42AA60AE52A15
:1005C800A6010A302602031CB12B0530A601AB2B6D
:1005D8008A113B258A1110308316BD000E30BE00EB
:1005E8008A1172258A1101308A11E6248A11003095
:1005F8008A11F1248A1101308A11FC248A110630EB
:10060800842B8A11E3238A115308D8005208D70093
:100618008A11BE258A11003A031DAF2A00308316BD
:1006280058025B3003195702031C272B00302302A2
:100638000B30031922020318242BA20A0319A30A58
:10064800A401A501292BA201A301003023020B302C
:10065800031922020030031C452B8A11E6248A1153
:1006680001308A11F1248A1100308A11FC248A1180
:100678008316A201A301A401A5018A112F258A11BD
:10068800862A58024130031957020318562B0030A6
:1006980025020B30031924020318582BA40A031946
:1006A800A50A582BA401A501003025020B30031917
:1006B8002402031CB12B01308A11E6248A11003070
:1006C8008A11F1248A1101308A11FC248A11B12B74
:1006D80000308A11E6248A1100308A11F1248A1127
:1006E80001308A11FC248A1101308A1104268A11EA
:1006F800F9308316BD0096308A1148258A11643076
:100708008316AB2B00302102333003192002031863
:10071800912BA00A0319A10AB12B6530A001A101F0
:10072800AB2B8A11E3238A115308D6005208D5004F
:1007380000305602333003195502031CA52BA70AB3
:10074800A62BA70132302702031CB12B6630A80064
:10075800B12BA8018A1116268A1164008A118824EF
:100768008A118A1109268A11003A0319B12B8A11B4
:1007780014268A1183162808003A0319692A013AAF
:1007880003198A2A033A0319A92A013A0319C52A1F
:10079800073A0319D22A013A0319EC2A033A031932
:1007A800052B653A03196C2B073A0319862B013A76
:1007B8000319952B033A0319AD2BE22BB12BB1305A
:1007C800EA233E08D3003D08D20008008316C30080
:1007D800D001C401C501C601C701CE01CF018316EE
:1007E800031343088400831373248A114E0D7A245B
:1007F8008A11C30AC30ACE0A0319CF0A4F08803ADE
:10080800FF0080307F02031D0B2C03304E02031CB7
:10081800F32B83160313D001D101C0015008023C09
:10082800BF00031CC0034008803A803C031D1E2CF7
:100838003F08510203184D2C831603130310692433
:100848008A1182248A110008C100840A0008C200A3
:1008580040084202031D322C3F08410203184B2C6A
:100868000310510DC83E84000008C400840A000823
:10087800C50082248A1173248A11510D7A248A11A1
:1008880082248A1144088000840A45088000D10A1D
:10089800112C831602300313D00A5002D101031C15
:1008A800112CD10A031069248A113F08C6070318BE
:1008B800C70A4008C7070230D10A5102031C572C47
:1008C8004708BE004608BD000800510DC83E840018
:1008D80083130008BF00840A0008C000080000084D
:1008E800BF00840A0008C00003100800C83E840046
:1008F8003F088000840A4008800008000310510D5A
:10090800023EC83E84000800A1248A11003A031957
:1009180008000030A5248A11AA248A116308023A23
:100928000330031D9B2C8316BD0002309E2C8316BA
:10093800BD000130BE248A11DA2C83120313580833
:1009480008008316BD008312D800080003305E0239
:10095800031808000330DE0A5E02031C0800DE01EB
:100968006308023A031DBB2CE301E30A08000230C6
:10097800E3000800BF00403083129F0083163F0841
:10098800BE000310BE0D03103E0D83129F043530C8
:1009980083169F003D08BE00BE0CBE0C3E0CC0393D
:1009A8009F0483121F1483160D1508008312031366
:1009B8009F1408000130E6248A110030F1248A11BE
:1009C8000130FC2C8316BD003D080319EE2C831260
:1009D800061408008312061008008316BD003D089F
:1009E8000319F92C83128615080083128611080052
:1009F8008316BD003D080319042D831286140800D0
:100A08008312861008001A258A11003011258A11D0
:100A180000301F258A110030272D0313BD003D0823
:100A28000319182D06140800061008000615831669
:100A3800031708150800BD003D080319252D861564
:100A4800080086110800BD003D0803192D2D8614E5
:100A580008008610080036258A113B258A11402592
:100A68008A11442D8312C301C401D90108008312DD
:100A7800C701C801DB010800C501C601DA01080089
:100A8800C901CA01DC010800BE00F03083129705D5
:100A98000430920083163D0892003E0883129500A8
:100AA800970183160C3006110317081183120313DC
:100AB800970408004330FD018313840063308A11D2
:100AC800F4258A11A0308400BD308A11F425023043
:100AD800E3004B30E40083018A113E2A8312460862
:100AE8004504031D0800DA08031D080083163E08A4
:100AF8008312C60083163D088312C500DA01DA0A9C
:100B08000800831248084704031D0800DB08031D7A
:100B1800080083163E088312C80083163D08831216
:100B2800C700DB01DB0A0800831244084304031DE5
:100B38000800D908031D080083163E088312C40064
:100B480083163D088312C300D901D90A080083120D
:100B58004A084904031D0800DC08031D0800831621
:100B68003E088312CA0083163D088312C900DC01BF
:100B7800DC0A0800831246084504031D00345A089D
:100B8800031900340130DA010800831248084704C9
:100B9800031D00345B08031900340130DB01080031
:100BA800831244084304031D003459080319003410
:100BB8000130D901080083124A084904031D003492
:100BC8005C08031900340130DC010800CF3003133E
:100BD8008F002C308E00E130900083160C14080032
:100BE80064008001840A0406031900340406F52D04
:100BF80080308312031788008801881F0800012E9F
:100C08008316BD008312DD0008005F08031D013450
:100C1800003483160616861608008B170B17080073
:060C2800DF010800162E9A
:06400000FF0FDE3F783FD8
:00000001FF
