:040000008A11BF2F73
:100F7E0083018A11DF2F8030031788008801080053
:100F8E008714193088000715063089008715080068
:100F9E00023083129C00A0309D0080309B00080020
:100FAE00033083169C00B0309D0080309B000800FB
:100FBE008A11C2278A118316031386150616861206
:100FCE008513061706108A11C7278A118A11CF2793
:100FDE008A118A11D7278A110130831203138606CC
:100FEE000730F1007D30F000F00BFB2FF10BFB2FE3
:020FFE00F32FCF
:06400000CB2FAE3FF83F9C
:00000001FF
