:040000008A110B282E
:10000800FE00030EF0000A08F1008A11FE288A118A
:1000180019290E28F908031D1B289D208A11B601ED
:10002800B701B801B901F801F80A99208A110A3014
:100038007902031C3A28F90190208A117B080D3AAD
:10004800031D8D280C30FB0008000B3078020318C4
:100058003728F80A94208A11003A03193A280D1112
:1000680090208A113F28F801F9013F2894208A112D
:10007800003A03192928780803194E28AF208A1155
:100088000310790D203E8400720883138000840ACF
:10009800730856280310790D203E84000830831316
:1000A8008001840A8000F908031D62282108B7002E
:1000B8002008B6002108B9002008B800CA208A1113
:1000C8003702031D69283A083602031874280310FA
:1000D800790D203E84000008B600840A0008B700A5
:1000E800CA208A1139083B02031D7C2838083A02C5
:1000F800031887280310790D203E84000008B800F3
:10010800840A0008B9000A30F90A790203180800BD
:1001180099280D30FB000800831203131F100800F4
:10012800831203130D19013400341F1408000D1134
:1001380008007B080C3A031DA828831203139F1696
:100148001F169F111F110800831203139F161F16F5
:100158009F111F150800F401F50194208A11003A37
:100168000319C5280D1183161E08F400F501831222
:100178001E08F600F701F700F6017608F404770880
:10018800F5047508F3007408F20008000310790DEF
:10019800203E84000008BA00840A0008BB0008005A
:1001A8008A115A218A118A1161218A118A115221D0
:1001B8008A118A1127218A11861506168612851337
:1001C80006170510851085118A114A218A118A118E
:1001D80042218A118A113A218A118A1167218A11CA
:1001E800640005307A02031CF428FA018A110D20F4
:1001F8008A11F428831203130C1C12290C10FA0A12
:10020800B40A0319B50A00303502653003193402FF
:10021800031C122901308506B401B50171088A0052
:10022800700E8300FE0E7E0E09002030F801F901E1
:10023800FA01831384003A308A1132210D30FB0011
:1002480083018A11D4288316C43006140615831234
:100258009F00FE3083169F000D1108006400800186
:10026800840A04060319003404063329033083166C
:100278009C00B0309D0080309B0008000230831243
:100288009C00A0309D0080309B000800871411302E
:10029800880007150430890087150800C4308312C8
:1002A8009000C3308F0050308E0008008030031754
:1002B80088008801881F08005E298B170B17831692
:0C02C80003130C1408008312101408002B
:06400000FF2FDE3FF83F38
:00000001FF
