:040000008A11112828
:10000800FE00030E83120313D4000408D5000A0867
:10001800D6007F08D7008A1113288A111D2D0C1CC1
:10002800522864300C10EB0AE80A6802031C5228B4
:10003800E80183165B085A04031928280130DA02FC
:100048000030031CDB03DB025F085E04031932285F
:100058000130DE020030031CDF03DF028312610877
:10006800600403193D280130E0020030031CE1035D
:10007800E102831661086004031948280130E00290
:100088000030031CE103E1025D085C0403195228F7
:100098000130DC020030031CDD03DD0283120D1D7C
:1000A8006F2801300D1188208A1183166F080C3AC9
:1000B800031D66287C208A117108F7007008F60075
:1000C8000C306D287C208A117108F7007008F60042
:1000D8000D30F8008B20831203135708FF005608D1
:1000E8008A0055088400540E8300FE0E7E0E090017
:1000F80083121E08F300F20183161E08F204730827
:10010800F1007208F0000800F000E9000800780823
:100118000C3A031D042912307B020318FE28031031
:100128007B0D903EF1218A11FB0A7B08123A031DD0
:1001380008009030FB0155218A110310660D583EC6
:10014800840070088000840A71088000E60A031998
:10015800E70A6608043A67040319B4286D0B080017
:100168000030ED01ED0A6702043003196602031C32
:10017800BF28E601E701CD01CE01D1010310510DE1
:10018800583E84000008F900840A0008FA0079083B
:10019800CD070318CE0A7A08CE070430D10A5102D7
:1001A800031CC3284E08D0004D08CF0001300310AF
:1001B800D00CCF0C0310D00CCF0C500239300319DF
:1001C8004F02031CE928EE0AF028013050023830AB
:1001D80003194F02031CEE03FA306E02031CF628C3
:1001E800F930EE004B306E020318FC284B30EE005D
:1001F8006E08E829FB0103107B0D903EF1210800F1
:1002080078080D3A031D182912307D0203181229A7
:1002180003107D0DB43EF121FD0A0800FD01031015
:100228007D0DB43EF121080078080E3A031D3229ED
:1002380012307C0203182C2903107C0D103E840018
:10024800760883178000840A77088000FC0A080073
:10025800FC0103107C0DB43EF1210800FB01FD01F7
:10026800FC018312D201D301831203130310520D30
:10027800903E8400831780010A228A110A228A117B
:10028800840A8001D20A0319D30A5308803AFF006E
:1002980080307F02031D52291230520203180800D1
:1002A80038298312C400CB01C501C601C701C801A2
:1002B800C901CA0183120313440884008317032267
:1002C8008A11490D203E8400720883138000840A35
:1002D80073088000C40AC40AC90A0319CA0A4A086A
:1002E800803AFF0080307F02031D7C2912304902CA
:1002F800031C5E2983120313CB01CC01F3014B08C5
:10030800113CF200031CF3037308803A803C031D80
:100318008F2972084C020318C32983120313031090
:10032800F9218A1112228A110008F400840A0008AF
:10033800F50073087502031DA329720874020318D7
:10034800C12903104C0D203E84000008C500840A12
:100358000008C60012228A1103228A114C0D203E81
:10036800840072088000840A7308800012228A11AF
:1003780045088000840A46088000CC0A8229831236
:1003880011300313CB0A4B02CC01031C8229CC0A7F
:100398000310F9218A117208C7070318C80A7308DD
:1003A800C8071130CC0A4C02031CCD294808F100BB
:1003B8004708F0000F30F00EF10EF0057108F03923
:1003C800F0040F30F1050800F0006C06031908006E
:1003D800700895007008EC00080084007608831700
:1003E8008000840A7708800008004C0D203E8400B5
:1003F80083130008F200840A0008F30008000008CC
:10040800F200840A0008F30003100800840A80013F
:100418000310520DB43E84008001080003104C0DF7
:10042800023E203E840008008A11F5248A118A11B0
:10043800CC248A118A11E9258A118A11CD258A11BD
:100448008A11BB258A118A11ED258A110330A00073
:100458000C308A11AD248A113C30A000A1018A1108
:1004680082258A11F930A0004B308A1142258A1161
:10047800F9308316D5006400D50B3F2A432A64005F
:100488008A11C8248A1164008A1178248A118A1171
:10049800DA258A11003A0319472A8A11F0258A11A8
:1004A800A12B8A11A6258A11003A03195F2A633005
:1004B800EC00ED01472A8A11C7238A110030540243
:1004C8005B3003195302031C6B2AED0A6C2AED01F9
:1004D80003306D02031C472AED01EC01EC0A472AA0
:1004E80000308A11D4248A1101308A11DF248A113C
:1004F80000308A11EA248A118A11D5258A11F03030
:10050800A000A1018A1174258A1102309D2B8A113D
:100518009B258A11003A0319932A63309D2B8A116F
:10052800C7238A1100305402C83003195302031834
:100538009F2AEE0AA02AEE0106306E02031C472A03
:100548000330EE019D2B8A11E4258A11B430A000F6
:10055800A1018A1166258A1104309D2B8A119025E4
:100568008A11003A031D912A8A11C7238A11003083
:1005780054025530031953020318C42AEA0AC52A3B
:10058800EA0106306A02031C472A0530EA019D2B5E
:100598008A11DF258A117830A000A1018A11582517
:1005A8008A1101308A11D4248A1100308A11DF247B
:1005B8008A1101308A11EA248A110630852B8A11A2
:1005C800C7238A115408D9005308D8008A11B125C5
:1005D8008A11003A031D912A003059026530031927
:1005E8005802031C072B003063020630031962020D
:1005F8000318012BE20A0319E30AE401E501831257
:10060800E401E501092BE201E301003083166302EE
:100618000630031962020030031C232B8A11D424EC
:100628008A1101308A11DF248A1100308A11EA24E4
:100638008A118316E201E301E401E501472A590220
:100648005A30031958020318342B0030650206305B
:10065800031964020318392BE40A0319E50A392B34
:10066800E401E5018312E401E50100308316650227
:10067800063003196402031C472A01308A11D42466
:100688008A1100308A11DF248A1101308A11EA2484
:100698008A110030831659021930031958020318B9
:1006A8005A2B8312E40A0319E50A5D2B8312E4012D
:1006B800E50100306502063003196402031C472A6D
:1006C8008A11F2258A11472A00308A11D4248A1106
:1006D80000308A11DF248A1101308A11EA248A1134
:1006E8006430852B0030831263020A3003196202DA
:1006F8000318822BE20A0319E30A472A6530E2014C
:10070800E30183169D2B8A11C7238A115408D70049
:100718005308D60000305702333003195602031C21
:10072800972BEB0A982BEB0106306B02031C472A28
:100738006630EC00472AEC01642B83166C08003AFB
:100748000319552A013A0319742A033A03198B2A03
:10075800013A0319A72A073A0319B22A013A0319D9
:10076800CC2A033A0319E32A653A0319682B073A96
:100778000319762B013A0319872B033A03199F2B88
:10078800732A8A111128B430CE232108D4002008F6
:10079800D30008008316CE00D101CA01CB01CC01D9
:1007A800CD01CF01D001831603134E0884008317AF
:1007B8006B248A114F0DA63E840022088313800003
:1007C800840A23088000CE0ACE0ACF0A0319D00A69
:1007D8005008803AFF0080307F02031DF52B12304D
:1007E8004F02031CD72B83160313D101D201A30197
:1007F8005108113CA200031CA3032308803A803C43
:10080800031D082C2208520203183C2C83160313DC
:10081800031061248A1172248A110008A400840A32
:100828000008A50023082502031D1C2C2208240209
:1008380003183A2C0310520DA63E84000008CA0083
:10084800840A0008CB0072248A116B248A11520D85
:10085800A63E840022088000840A230880007224AF
:100868008A114A088000840A4B088000D20AFB2BB0
:10087800831611300313D10A5102D201031CFB2B3A
:10088800D20A031061248A112208CC070318CD0A62
:100898002308CD071130D20A5202031C462C4D08FA
:1008A800A1004C08A0000F30A00EA10EA005210841
:1008B800F039A0040F30A1050800520DA63E8400AF
:1008C80083130008A200840A0008A3000800000897
:1008D800A200840A0008A300031008000310520DA8
:1008E800023EA63E840008008F248A11003A0319AC
:1008F8000800003093248A1198248A1183166F08FF
:100908000C3A0330A000031D8B2C0C308C2C0D30BE
:10091800AD248A11C82C83120313690808008316B2
:10092800A0008312E900080012306A0203180800C8
:100938001230EA0A6A02031C0800EA0183166F08EB
:100948000C3A031DAA2C0D30EF0008000C30EF0004
:100958000800A20083129F0183162208A100031039
:10096800A10D0310210D83129F04353083169F00BB
:100978002008A100A10CA10C210CC0399F048312EE
:100988001F1483160D150800831203139F14080003
:100998000130D4248A110030DF248A110130EA2C76
:1009A8008316A00020080319DC2C83128615080082
:1009B8008312861108008316A00020080319E72C6B
:1009C8008312061608008312061208008316A00078
:1009D80020080319F22C8312861608008312861247
:1009E800080008258A110030FF248A1100300D25DF
:1009F8008A110030152D0313A00020080319062DB5
:100A080086150800861108000615831603170815B1
:100A18000800A00020080319132D06160800061266
:100A28000800A000200803191B2D8616080086124E
:100A380008005830FB01FC01FD01831384006E306F
:100A48008A11C5258A11DA308400EF308A11C5254C
:100A58008A11903083178400D8308A11C5258A11ED
:100A68001030840034308A11C52583160C30EF000D
:100A780083124B30EE0083018A11182AA100F0304E
:100A880083129705043092008316200892002108EB
:100A980083129500970183160C300611031708116D
:100AA80083120313970408005D085C04031D080003
:100AB800E708031D08002108DD002008DC00E70125
:100AC800E70A08005F085E04031D0800E808031D24
:100AD80008002108DF002008DE00E801E80A080015
:100AE8005B085A04031D0800E608031D08002108D6
:100AF800DB002008DA00E601E60A08006108600465
:100B0800031D0800E908031D08002108E10020086A
:100B1800E000E901E90A080083165F085E04031D86
:100B280000346808031900340130E801080083160E
:100B38005B085A04031D00346608031900340130A9
:100B4800E6010800831661086004031D0034690883
:100B5800031900340130E90108005D085C04031D35
:100B680000346708031900340130E7010800CF306A
:100B780003138F002C308E00E130900083160C1484
:100B8800080064008001840A04060319003404067E
:100B9800C62D80308312031788008801881F08003B
:100BA800D22D8316E001E101E90108000A306B0249
:100BB8000318013400348316DE01DF01E801080060
:100BC8008316DA01DB01E601080083160614861491
:0E0BD80008008B170B170800EB010800F22D28
:06400000FF0FDE3FF83F58
:00000001FF
