:040000008A110B282E
:10000800FE00030EF4000A08F5008A11AD298A11D2
:10001800162A8316051085108511051105138312FC
:100028000515051483160615861406168A114D2221
:100038008A118A1132228A118A1183228A11033085
:100048008312C2000D308A118B218A118A117822FD
:100058008A118A1126228A118A113C228A118A1150
:10006800A0218A11F128BB018A1180228A118A11E4
:100078007D228A110619F128B90AF128061946289D
:10008800BE0A4728BE010A303E02031CF128BE0101
:1000980040283E2806195228BF0A5328BF010A30B3
:1000A8003F02031CF128BF014028051140288A118E
:1000B8006E228A1109304302253003194202031CBB
:1000C800722805303D0203186B28BD0A40288316A4
:1000D800031707178312031305174028BD0183165A
:1000E8000317071383120313051340288A11692283
:1000F8008A1100304302253003194202031C932859
:10010800C001C00A051085148515BA01BB08031D76
:1001180040288A1164228A11BB01BB0A40288A112F
:1001280069228A11003043021F3003194202031862
:10013800A828C001C00A051485108511BA01BA0A99
:100148008A115F228A114028C008031D402884288C
:100158008A115A228A110038031D40280530B90037
:10016800F1283B0BBD288A115A228A11003A031D37
:1001780040288A1155228A110038031D40288A1107
:1001880069228A11003043022530031942020318FC
:10019800B228F1283A08003A0319AC28013A0319A1
:1001A800B5280C2905150510851085114028061D50
:1001B800DF28BC0AE028BC0103303C02031CF128FC
:1001C800BC0140280619EA28C10AEB28C1010B30F6
:1001D8004102031CF128C101B90164008A1173228C
:1001E8008A11003A0319F1288A1186228A118A1184
:1001F8000D218A1183120313390884000B3004027D
:100208000318F12802308A000310040D003E820012
:10021800F1287908003A03190800003024218A11CE
:1002280029218A11470B1C290330C20001301F29DC
:100238000330C2000D308B218A11A02979080800EB
:1002480083120313C200F9000800063038020318AD
:10025800080086218A110310380D203E84004208C8
:1002680083138000840A43088000B808031D4429CA
:100278002108B3002008B2002108B5002008B40006
:10028800A3218A113302031D4B29440832020318A3
:1002980056290310380D203E84000008B200840A55
:1002A8000008B300A3218A1135084502031D5E2901
:1002B80034084402031869290310380D203E8400CD
:1002C8000008B400840A0008B5000630B80A3802ED
:1002D800031C0800B80147080D3A031D7629C70119
:1002E800C70A78290D30C700C6010310460D203E05
:1002F800840006308001840A8001C60A4602031879
:10030800080079293108C3003008C2000800C40079
:100318009F01C3000310C30D0310430D9F0442083F
:10032800C300C30CC30C430CC03983169F0483124B
:100338001F1483160D15080083129F14080003105C
:10034800380D203E84000008C400840A0008C50057
:100358000800831203130C1CCD2964300C10FA0A10
:10036800F80A7802031CCD29F801770876040319E6
:10037800C3290130F6020030031CF703F7023708DF
:1003880036040319CD290130B6020030031CB70327
:10039800B7020D1DEA2901300D11FC218A11F12146
:1003A8008A1171088312B1007008B000470BE42964
:1003B800F1218A1171088312AF007008AE00EA2992
:1003C800F12171088312AD007008AC0075088A002D
:1003D800740E8300FE0E7E0E09001E08F300F20163
:1003E80083161E08F2047308F1007208F000080072
:0603F800F000F90008000E
:100400008A1137288A1142288A114D288A114E28CC
:100410008A1159288A115B288A117A288A11CE28D4
:100420008A11D6288A11DB288A11E6282030F601A5
:10043000F701F801F901FA018313840042308A11AF
:1004400045220D30C70083018A110D280230831226
:100450009C00A0309D0080309B00831686150616F8
:1004600086120800CF3003138F002C308E00E1304D
:10047000900083160C1408009C01A0309D00803071
:100480009B00851306178617080064008001840A04
:100490000406031900340406462A80308312031729
:1004A00088008801881F0800522A3708360403197B
:1004B0000134003477087604031901340034103015
:1004C000B6000E30B70008009030F6007E30F7001E
:1004D00008002D08C3002C08C20008002F08C30024
:1004E0002E08C20008000B307A02031801340034D1
:1004F00087141930880007150800B601B7010800F5
:10050000F601F70108008B170B170800FA01080025
:06400000FF2FDE3FF83F38
:00000001FF
