:040000008A11112828
:10000800FE00030E83120313BF000408C0000A0891
:10001800C1007F08C2008A1113288A117F2D0C1C89
:100028004F2864300C10E10AD90A5902031C4F28E2
:10003800D90146084504031927280130C5020030B4
:10004800031CC603C6024A084904031931280130B3
:10005800C9020030031CCA03CA024E084D04031922
:100068003B280130CD020030031CCE03CE024C08E1
:100078004B04031945280130CB020030031CCC0384
:10008800CC024808470403194F280130C702003042
:10009800031CC803C8020D1D6B2801300D118A20EE
:1000A8008A116508023A031D622878208A117108AE
:1000B800F7007008F6000230F8006A2878208A11E4
:1000C8007108F7007008F600F801F80A8D2083120D
:1000D80003134208FF0041088A00400884003F0ECD
:1000E8008300FE0E7E0E09001E08F300F20183163F
:1000F8001E08F20483124308F2070318F30A44089F
:10010800F3077308F1007208F0000800F000DA0045
:1001180008007808023A031D492903307D020318B4
:10012800432903107D0DAB3E1D228A11FD0A7D086F
:10013800033A031D0800AB30FD0195218A117108AF
:10014800D0007008CF00E408031DB828E401E40AD1
:100158005008D2004F08D1005008D4004F08D300EF
:100168005008D6004F08D5005608B0005508AF0013
:100178000310B00CAF0C0310B00CAF0C5408B20055
:100188005308B1000310B20CB10C0310B20CB10C3F
:100198005208B4005108B3000310B40CB30C031098
:1001A800B40CB30C5008B6004F08B5000310B60CD9
:1001B800B50C0310B60CB50C33083507B700340876
:1001C8000318340A3607B80031083707B90032086F
:1001D8000318320A3807BA002F083907BB0030085D
:1001E8000318300A3A07BC0053083B02BD00540804
:1001F800031C540A3C02BE0055083D07F900560886
:100208000318560A3E07FA000130580291300319C4
:100218005702031C13299030F9000130FA005408E2
:10022800D6005308D5005208D4005108D30050080E
:10023800D2004F08D10001307A02DC30031979026C
:10024800031C2829E60A2F2901307A02DB3003191A
:100258007902031CE603FA306602031C3529F930DB
:10026800E6004B30660203183B294B30E6005F0876
:10027800013A031D41299630E60066081A2AFD0155
:1002880003107D0DAB3E1D220800780B5B2903305F
:100298006202031855290310620DB13E1D22E20ABD
:1002A8000800E2010310620DB13E1D220800780823
:1002B8000E3A031D6F2903306302031869290310DE
:1002C800630DB73E1D22E30A0800E3010310630D26
:1002D800B13E1D220800FD01E201E301FB01FC0122
:1002E80003107B0DAB3E840083133B228A11B13E81
:1002F80084003B228A11B73E84008001840A800171
:10030800FB0A0319FC0A7C08803AFF0080307F0250
:10031800031D902903307B020318080074295F0825
:100328000800A400AD01A001A101A201A301AB0135
:10033800AC0183120313240825228A1103102B0D04
:100348002D228A11A40AA40AAB0A0319AC0A2C08A4
:10035800803AFF0080307F02031DB42903302B024E
:10036800031C9D2983120313AD01AE01F3012D086F
:10037800023CF200031CF3037308803A803C031D1F
:10038800C72972082E020318FC29831203130310CD
:100398002E0D253E25228A1135228A110008F400E7
:1003A800840A0008F50073087502031DDD29720828
:1003B80074020318FA2903102E0D253E8400000844
:1003C800A000840A0008A10035228A110008F20062
:1003D800840A0008F30003102E0D2D228A113522FD
:1003E8008A1120088000840A21088000AE0ABA29F0
:1003F800831202300313AD0A2D02AE01031CBA2981
:10040800AE0A03102E0D253E25228A117208A20776
:100418000318A30A7308A3070230AE0A2E02031CAE
:10042800062A2308F1002208F0000800F0009500D1
:1004380008008400760883138000840A7708800007
:100448000800840083130008F200840A0008F300FF
:100458000800253E840072088000840A7308800022
:10046800080003102E0D023E253E8400080080017E
:10047800840A800103107B0D08008A1110258A1157
:100488008A11E7248A118A1136268A118A112526AB
:100498008A118A110B268A118A113A268A118A1121
:1004A8001D268A118A1151258A1102300313BD01B4
:1004B8008A11C7248A11B030BD000430BE008A11E9
:1004C800CC258A11F9308316D4006400D40B692A2C
:1004D8006D2A64008A11E3248A11BA2B8A11002636
:1004E8008A11003A03197D2A63308316A800A901EE
:1004F800BA2B8A11EC238A11003053029230031967
:100508005202031C892AA90A8A2AA9011E30290233
:10051800031CBA2BA9018316A801A80ABA2BF93023
:10052800BD0096308A1169258A1100308A11EF249E
:100538008A1101308A11FA248A1100308A1105259E
:100548008A118A114D258A11A0308316BD008C307E
:10055800BE008A11B9258A1102308D2B8A11F52522
:100568008A11003A0319BA2A63308D2B8A11EC23B9
:100578008A11013053024230031952020318C62A65
:10058800AA0AC72AAA010A302A02031CBA2B033076
:10059800AA01B42B8A113F258A1130308316BD0079
:1005A8002A30BE008A11A6258A1104308D2B8A11A3
:1005B800EA258A11003A031DB82A8A11EC238A1108
:1005C800003053026930031952020318ED2AA60AB3
:1005D800EE2AA6010A302602031CBA2B0530A60112
:1005E800B42B8A1144258A1110308316BD000E30B1
:1005F800BE008A1193258A1101308A11EF248A11CD
:1006080000308A11FA248A1101308A1105258A11CD
:1006180006308D2B8A11EC238A115308D800520812
:10062800D7008A11DF258A11003A031DB82A003045
:10063800831658026A3003195702031C302B003006
:1006480023020B300319220203182D2BA20A0319C7
:10065800A30AA401A501322BA201A30100302302A1
:100668000B30031922020030031C4E2B8A11EF2491
:100678008A1101308A11FA248A1100308A1105255D
:100688008A118316A201A301A401A5018A113825A4
:100698008A118F2A580269300319570203185F2BF1
:1006A800003025020B30031924020318612BA40A19
:1006B8000319A50A612BA401A501003025020B30FE
:1006C80003192402031CBA2B01308A11EF248A1162
:1006D80000308A11FA248A1101308A1105258A11FD
:1006E800BA2B00308A11EF248A1100308A11FA24BB
:1006F8008A1101308A1105258A1101308A112D26A7
:100708008A11F9308316BD0096308A1169258A113D
:1007180064308316B42B00302102333003192002D1
:1007280003189A2BA00A0319A10ABA2B6530A00155
:10073800A101B42B8A11EC238A115308D600520860
:10074800D50000305602523003195502031CAE2B57
:10075800A70AAF2BA70132302702031CBA2B663039
:10076800A800BA2BA8018A113F268A1164008A11B1
:1007780091248A118A1132268A11003A0319BA2B58
:100788008A113D268A1183162808003A0319722A0D
:10079800013A0319932A033A0319B22A013A0319B1
:1007A800CE2A073A0319DB2A013A0319F52A033A34
:1007B80003190E2B653A0319752B073A03198F2B6A
:1007C800013A03199E2B033A0319B62BEB2BBA2BCC
:1007D800B130F3233E08D3003D08D2000800831649
:1007E800C300D001C401C501C601C701CE01CF01B4
:1007F800831603134308840083137C248A114E0D47
:1008080083248A11C30AC30ACE0A0319CF0A4F08E0
:10081800803AFF0080307F02031D142C03304E0203
:10082800031CFC2B83160313D001D101C00150080F
:10083800023CBF00031CC0034008803A803C031DF3
:10084800272C3F0851020318562C83160313031054
:1008580072248A118B248A110008C100840A0008B6
:10086800C20040084202031D3B2C3F084102031806
:10087800542C0310510DC83E84000008C400840A9B
:100888000008C5008B248A117C248A11510D832409
:100898008A118B248A1144088000840A4508800044
:1008A800D10A1A2C831602300313D00A5002D10140
:1008B800031C1A2CD10A031072248A113F08C60798
:1008C8000318C70A4008C7070230D10A5102031C9F
:1008D800602C4708BE004608BD000800510DC83E00
:1008E800840083130008BF00840A0008C0000800C1
:1008F8000008BF00840A0008C00003100800C83EB2
:1009080084003F088000840A400880000800031023
:10091800510D023EC83E84000800AA248A11003AFC
:10092800031908000030AE248A11B3248A1165081F
:10093800023A0330031DA42C8316BD000230A72CF5
:100948008316BD000130C7248A11E32C83120313D8
:100958005A0808008316BD008312DA000800033025
:100968006002031808000330E00A6002031C080054
:10097800E0016508023A031DC42CE501E50A0800F8
:100988000230E5000800BF00403083129F00831644
:100998003F08BE000310BE0D03103E0D83129F04D6
:1009A800353083169F003D08BE00BE0CBE0C3E0CC1
:1009B800C0399F0483121F1483160D150800831273
:1009C80003139F1408000130EF248A110030FA2421
:1009D8008A110130052D8316BD003D080319F72C37
:1009E8008312061408008312061008008316BD003F
:1009F8003D080319022D83128615080083128611FB
:100A080008008316BD003D0803190D2D83128614B6
:100A1800080083128610080023258A1100301A2541
:100A28008A11003028258A110030302D0313BD00AB
:100A38003D080319212D06140800061008000615A4
:100A48008316031708150800BD003D0803192E2D4D
:100A58008615080086110800BD003D080319362DCB
:100A680086140800861008003F258A1144258A113B
:100A780049258A114D2D8312C501C601DB010800E5
:100A88008312C901CA01DD010800C701C801DC01E0
:100A98000800CB01CC01DE010800831603170F14F0
:100AA80062086308670883120313C40083160317D8
:100AB800660883120313C300FF30C305C401C301D2
:100AC800C401831603170F100800BE00F03083120C
:100AD80097050430920083163D0892003E08831261
:100AE8009500970183160C3006110317081183121D
:100AF8000313970408004330FD0183138400653015
:100B08008A1115268A11A0308400BD308A11152655
:100B18000230E5004B30E60083018A11412A831236
:100B280048084704031D0800DC08031D0800831655
:100B38003E088312C80083163D088312C700DC01F3
:100B4800DC0A080083124A084904031D0800DD086E
:100B5800031D080083163E088312CA0083163D0849
:100B68008312C900DD01DD0A080083124608450426
:100B7800031D0800DB08031D080083163E088312C6
:100B8800C60083163D088312C500DB01DB0A080096
:100B980083124C084B04031D0800DE08031D0800DF
:100BA80083163E088312CC0083163D088312CB00BF
:100BB800DE01DE0A0800831248084704031D0034DA
:100BC8005C08031900340130DC01080083124A086C
:100BD8004904031D00345D08031900340130DD01A8
:100BE8000800831246084504031D00345B080319F6
:100BF80000340130DB01080083124C084B04031D4C
:100C080000345E08031900340130DE010800CF30DB
:100C180003138F002C308E00E130900083160C14E3
:100C2800080064008001840A0406031900340406DD
:100C3800162E133083129C0010309D0090309B00BC
:100C4800080080308312031788008801881F080075
:100C58002A2E8316BD008312DF0008006108031DD9
:100C68000134003483160616861608008B170B17F6
:080C78000800E10108003F2E15
:06400000FF0FDE3F783FD8
:00000001FF
