:040000008A11112828
:10000800FE00030E83120313BF000408C0000A0891
:10001800C1007F08C2008A1113288A115A2D0C1CAE
:100028004F2864300C10DF0AD70A5702031C4F28E8
:10003800D70144084304031927280130C3020030BC
:10004800031CC403C40248084704031931280130BB
:10005800C7020030031CC803C8024C084B0403192C
:100068003B280130CB020030031CCC03CC024A08E9
:100078004904031945280130C9020030031CCA038A
:10008800CA024608450403194F280130C50200304A
:10009800031CC603C6020D1D6B2801300D118320F9
:1000A8008A116308023A031D622878208A117108B0
:1000B800F7007008F6000230F8006A2878208A11E4
:1000C8007108F7007008F600F801F80A8620831214
:1000D80003134208FF0041088A00400884003F0ECD
:1000E8008300FE0E7E0E09001E08F300F20183163F
:1000F8001E08F2047308F1007208F0000800F0000E
:10010800D80008007808023A031D422903307D020E
:1001180003183C2903107D0DAB3E1A228A11FD0AF3
:100128007D08033A031D0800AB30FD0191218A11B7
:100138007108CE007008CD00E208031DB128E20165
:10014800E20A4E08D0004D08CF004E08D2004D08F4
:10015800D1004E08D4004D08D3005408B00053080D
:10016800AF000310B00CAF0C0310B00CAF0C52086A
:10017800B2005108B1000310B20CB10C0310B20C5C
:10018800B10C5008B4004F08B3000310B40CB30C02
:100198000310B40CB30C4E08B6004D08B50003109C
:1001A800B60CB50C0310B60CB50C33083507B70000
:1001B80034080318340A3607B80031083707B9007D
:1001C80032080318320A3807BA002F083907BB006B
:1001D80030080318300A3A07BC0051083B02BD003A
:1001E8005208031C520A3C02BE0053083D07F9009E
:1001F80054080318540A3E07FA0001305602913099
:1002080003195502031C0C299030F9000130FA003B
:100218005208D4005108D3005008D2004F08D1002A
:100228004E08D0004D08CF0001307A02283003195B
:100238007902031C2129E40A282901307A0227308F
:1002480003197902031CE403FA306402031C2E2903
:10025800F930E4004B306402031834294B30E400D1
:100268005D08013A031D3A299630E4006408172A0C
:10027800FD0103107D0DAB3E1A220800780B5529AD
:1002880003308312600203184F290310600DB13E3A
:100298001A22E00A0800E0010310600DB13E1A229C
:1002A800080078080E3A031D6A2903308312610298
:1002B800031864290310610DB73E1A22E10A0800E9
:1002C800E1010310610DB13E1A220800FD018312FD
:1002D800E001E101FB01FC0103107B0DAB3E840052
:1002E800831338228A11B13E840038228A11B73E1E
:1002F80084008001840A8001FB0A0319FC0A7C0837
:10030800803AFF0080307F02031D8C2903307B0276
:100318000318080070295D0808008312A400AD01C5
:10032800A001A101A201A301AB01AC018312031337
:10033800240822228A1103102B0D2A228A11A40ACA
:10034800A40AAB0A0319AC0A2C08803AFF008030D3
:100358007F02031DB12903302B02031C9A29831243
:100368000313AD01AE01F3012D08023CF200031C9A
:10037800F3037308803A803C031DC42972082E02D7
:100388000318F9298312031303102E0D253E222288
:100398008A1132228A110008F400840A0008F50044
:1003A80073087502031DDA29720874020318F72905
:1003B80003102E0D253E84000008A000840A0008C2
:1003C800A10032228A110008F200840A0008F30012
:1003D80003102E0D2A228A1132228A112008800049
:1003E800840A21088000AE0AB72983120230031359
:1003F800AD0A2D02AE01031CB729AE0A03102E0D5B
:10040800253E22228A117208A2070318A30A73083C
:10041800A3070230AE0A2E02031C032A2308F100A8
:100428002208F0000800F000950008008400760813
:1004380083138000840A77088000080084008313EF
:100448000008F200840A0008F3000800253E840032
:1004580072088000840A73088000080003102E0DBB
:10046800023E253E840008008001840A80010310B2
:100478007B0D08008A1103258A118A11DA248A1152
:100488008A1109268A118A11F8258A118A11E62506
:100498008A118A110D268A110330BD0002308A1193
:1004A800BA248A113C30BD00BE018A11A7258A11E1
:1004B800F9308316D4006400D40B5F2A632A6400E1
:1004C8008A11D6248A11AD2B8A11DB258A11003AAC
:1004D8000319732A63308316A800A901AD2B8A116A
:1004E800DF238A11003053025B3003195202031CC8
:1004F8007F2AA90A802AA9011E302902031CAD2BD4
:10050800A9018316A801A80AAD2BF930BD009630C1
:100518008A1144258A1100308A11E2248A11013097
:100528008A11ED248A1100308A11F8248A118A115F
:1005380040258A11F0308316BD00BE018A1194252A
:100548008A110230802B8A11D0258A11003A0319AA
:10055800AF2A6330802B8A11DF238A1100305302BF
:10056800C830031952020318BB2AAA0ABC2AAA01D6
:100578000A302A02031CAD2B0330AA01A72B8A11CB
:1005880032258A11B4308316BD00BE018A11812537
:100598008A110430802B8A11C5258A11003A031D5F
:1005A800AD2A8A11DF238A11003053024130031922
:1005B80052020318E12AA60AE22AA6010A302602F4
:1005C800031CAD2B0530A601A72B8A1137258A11EC
:1005D80078308316BD00BE018A116E258A1101305C
:1005E8008A11E2248A1100308A11ED248A1101301F
:1005F8008A11F8248A110630802B8A11DF238A1188
:100608005308D8005208D7008A11BA258A11003A2F
:10061800031DAD2A0030831658025B3003195702B8
:10062800031C232B003023020B300319220203186A
:10063800202BA20A0319A30AA401A501252BA201B4
:10064800A301003023020B30031922020030031CDF
:10065800412B8A11E2248A1101308A11ED248A1172
:1006680000308A11F8248A118316A201A301A4017B
:10067800A5018A112B258A11852A580241300319B0
:1006880057020318522B003025020B30031924029D
:100698000318542BA40A0319A50A542BA401A50175
:1006A800003025020B3003192402031CAD2B013046
:1006B8008A11E2248A1100308A11ED248A1101304E
:1006C8008A11F8248A11AD2B00308A11E2248A118C
:1006D80000308A11ED248A1101308A11F8248A1118
:1006E80001308A1100268A11F9308316BD00963030
:1006F8008A1144258A1164308316A72B0030210201
:1007080033300319200203188D2BA00A0319A10AFC
:10071800AD2B6530A001A101A72B8A11DF238A1117
:100728005308D6005208D50000305602333003195A
:100738005502031CA12BA70AA22BA70132302702BE
:10074800031CAD2B6630A800AD2BA8018A11122618
:100758008A1164008A1184248A118A1105268A1153
:10076800003A0319AD2B8A1110268A11831628081E
:10077800003A0319682A013A0319892A033A031926
:10078800A72A013A0319C32A073A0319CF2A013ABB
:100798000319E92A033A0319012B653A0319682B4F
:1007A800073A0319822B013A0319912B033A0319CB
:1007B800A92BDE2BAD2BB130E6233E08D3003D0834
:1007C800D20008008316C300D001C401C501C601C8
:1007D800C701CE01CF018316031343088400831396
:1007E8006F248A114E0D76248A11C30AC30ACE0AD1
:1007F8000319CF0A4F08803AFF0080307F02031D9B
:10080800072C03304E02031CEF2B83160313D00171
:10081800D101C0015008023CBF00031CC0034008BE
:10082800803A803C031D1A2C3F0851020318492CBA
:1008380083160313031065248A117E248A11000885
:10084800C100840A0008C20040084202031D2E2C81
:100858003F0841020318472C0310510DC83E84007D
:100868000008C400840A0008C5007E248A116F2489
:100878008A11510D76248A117E248A114408800039
:10088800840A45088000D10A0D2C83160230031310
:10089800D00A5002D101031C0D2CD10A0310652483
:1008A8008A113F08C6070318C70A4008C70702305D
:1008B800D10A5102031C532C4708BE004608BD004C
:1008C8000800510DC83E840083130008BF00840A45
:1008D8000008C00008000008BF00840A0008C00023
:1008E80003100800C83E84003F088000840A4008BE
:1008F800800008000310510D023EC83E8400080025
:100908009D248A11003A031908000030A1248A1195
:10091800A6248A116308023A0330031D972C831614
:10092800BD0002309A2C8316BD000130BA248A110A
:10093800D62C83120313580808008316BD008312AF
:10094800D800080003305E02031808000330DE0AEE
:100958005E02031C0800DE016308023A031DB72C7F
:10096800E301E30A08000230E3000800BF0040305A
:1009780083129F0083163F08BE000310BE0D0310AC
:100988003E0D83129F04353083169F003D08BE003C
:10099800BE0CBE0C3E0CC0399F0483121F14831674
:1009A8000D150800831203139F1408000130E22478
:1009B8008A110030ED248A110130F82C8316BD000D
:1009C8003D080319EA2C8312061408008312061046
:1009D80008008316BD003D080319F52C83128615FF
:1009E80008008312861108008316BD003D0803190C
:1009F800002D83128614080083128610080016251D
:100A08008A1100300D258A1100301B258A1100300B
:100A1800232D0313BD003D080319142D06140800E7
:100A28000610080006158316031708150800BD00F0
:100A38003D080319212D8615080086110800BD0000
:100A48003D080319292D8614080086100800322550
:100A58008A1137258A113C258A11402D8312C3013A
:100A6800C401D90108008312C701C801DB010800CD
:100A7800C501C601DA010800C901CA01DC01080084
:100A8800BE00F030831297050430920083163D08AB
:100A980092003E0883129500970183160C300611C8
:100AA8000317081183120313970408004330FD014C
:100AB8008313840063308A11F0258A11A0308400E2
:100AC800BD308A11F0250230E3004B30E400830189
:100AD8008A113E2A831246084504031D0800DA08D5
:100AE800031D080083163E088312C60083163D08BE
:100AF8008312C500DA01DA0A08008312480847049D
:100B0800031D0800DB08031D080083163E08831236
:100B1800C80083163D088312C700DB01DB0A080002
:100B2800831244084304031D0800D908031D080064
:100B380083163E088312C40083163D088312C3003F
:100B4800D901D90A080083124A084904031D08007C
:100B5800DC08031D080083163E088312CA008316AA
:100B68003D088312C900DC01DC0A0800831246082C
:100B78004504031D00345A08031900340130DA0112
:100B88000800831248084704031D00345B08031952
:100B980000340130DB010800831244084304031DBC
:100BA80000345908031900340130D90108008312B0
:100BB8004A084904031D00345C0803190034013055
:100BC800DC010800CF3003138F002C308E00E13099
:100BD800900083160C14080064008001840A04063F
:100BE800031900340406F12D80308312031788009E
:100BF8008801881F0800FD2D8316BD008312DD00C3
:100C080008005F08031D0134003483160616861693
:0E0C180008008B170B170800DF010800122ED2
:06400000FF0FDE3F783FD8
:00000001FF
