:040000008A110B282E
:10000800FE00030EF4000A08F5008A11152B8A1168
:10001800E02B831605108510051185110610861032
:100028000513851306138A11CD238A1103130615A8
:10003800861706168A1151248A118A1125248A11D5
:100048008A1185248A1103308312C3000E308A1165
:100058009B238A118A117C248A118A111A248A11F5
:100068008A1149248A118A11B0238A1164008A11DD
:1000780077248A11003A03193A288A1188248A11A8
:100088008A1179238A11F72A8A1172248A11073072
:1000980044029F3003194302031C5428C20A5528FE
:1000A800C20105304202031C3A28C201AD01AD0A63
:1000B8003A280330410203186328C10A3A28C101CB
:1000C8008A1172248A11073044029F3003194302AF
:1000D800031C70280230AC288A11B3238A113A28ED
:1000E80003300517AC288A116D248A1100304402A8
:1000F80082300319430203188328B7018428B70AFA
:10010800370803198A280430B701AC288A116D24EE
:100118008A110030440275300319430203189628E7
:10012800BE0A9728BE013E0803193A280830BE01C6
:10013800AC28B430C300C4018A1138248A110530B0
:10014800AC288A1168248A11003A0319322A093026
:10015800AD003A288A1181248A11AE01AE0A3A28E4
:100168008A1163248A110730440277300319430245
:100178000318C028AF01E7288A1163248A110830C0
:1001880044021330031943020318CD28AF01AF0A04
:10019800E7288A1163248A11083044029C30031925
:1001A80043020318D9280230E6288A1163248A11E9
:1001B800093044022430031943020318E5280330A8
:1001C800E6280430AF0002301F2A0614B00A3A2885
:1001D80005303802031CF3280514B801EA28B80AC8
:1001E8003A2805303802031CF3288514F128053015
:1001F8003802031CF3280515F12805303802031CC2
:10020800F3288515F12805303802031CF328061059
:100218000510851005118511F12802303802031CDC
:10022800F328B801B00103301F2A300884000730D2
:10023800040203183A2803308A000310040DF03E24
:1002480082000614B10A3A2805303902031C2F2906
:100258000514B9012629B90A3A2805303902031CC0
:100268002F2985142D2905303902031C2F2905153E
:100278002D2905303902031C2F2985152D29053014
:100288003902031C2F2905108510051185112D2908
:1002980002303902031C2F29B901B101172931088D
:1002A80084000730040203183A2804308A00031037
:1002B800040D003E820006140514B20A3A280530DF
:1002C8003A02031C6A298514BA016129BA0A3A2834
:1002D80005303A02031C6A290515682905303A02D7
:1002E800031C6A298515682905303A02031C6A2906
:1002F800851005118511682902303A02031C6A2904
:10030800BA01B20117293208840006300402031822
:100318003A2804308A000310040D0E3E82000614A9
:1003280005148514B30A3A2805303B02031C9F299B
:100338000515BB019629BB0A3A2805303B02031C68
:100348009F2985159D2905303B02031C9F2905110E
:1003580085119D2902303B02031C9F29BB01B30173
:1003680017293308003A03199329013A03199829E0
:10037800033A0319A129013A0319A729073A0319CE
:10038800AE295C280614051485140515B40A3A2804
:1003980005303C02031CD3298515BC01CA29BC0AB7
:1003A8003A2805303C02031CD3298511D129023093
:1003B8003C02031CD329BC01B40117293408003AB4
:1003C8000319C629013A0319CC29033A0319D52977
:1003D800013A0319DB295C282F08003A0319192967
:1003E800013A03195329033A03198729013A0319D2
:1003F800B529073A0319E2295C288A115E248A1173
:10040800003A0319B128831603170813831203133C
:10041800061705138A1172248A110A304402F13032
:1004280003194302031C1A2A0F301B2A07308316AC
:10043800880004308312AE003A28053035020318CC
:10044800272AB50A3A28B50106178316031708178D
:1004580083120313AD01AD0AAE013A282E08003A03
:100468000319AE28013A0319B428033A0319F029ED
:10047800013A0319012A073A0319212A5C2885172A
:1004880083163C300317871783120313C300C40174
:100498008A112F248A11AB01AB0A3A28C8303602D8
:1004A80003185D2AB60A0614051485140515851562
:1004B8003A280230B601AB003A2805138A115924AC
:1004C8008A11003A03196A2AAB01AB288A116D24F4
:1004D8008A11003044028230031943020318762A35
:1004E800BF01772ABF0A3F080319862ABF0183166E
:1004F800031787138312031385138A11C7238A11DD
:10050800AB016E288A1172248A11073044029E308A
:1005180003194302031C922AC00A932AC001400807
:100528000319982AC0013A288A11B3238A115A2834
:100538002B08003A0319432A013A0319522A033AAD
:100548000319612A5C28061086100510851005110C
:10055800851183160317081383120313061705134F
:10056800AC01AC0A3A288A1172248A110330440279
:10057800E930031943020318C32AAA0AC42AAA01A4
:100588000A302A02031C3A280230AC00AA013A2891
:100598008A1172248A11073044029E3003194302DB
:1005A800031CD82ABD0AD92ABD0103303D02031C09
:1005B8003A28AC01BD018A11BF238A110F30831676
:1005C80088008A11CD238A1183120313AD013A28BA
:1005D8002C08003A0319A72A013A0319B72A033A43
:1005E8000319CC2A5C28831203132D08003A031937
:1005F8004828013A03195D28033A03197428013A77
:1006080003197728073A03199D28013A0319A528E1
:100618000D3A03199C2A013A0319EC2A5C288A111D
:100628000B28831203130C1C3F2B64300C10FA0A9E
:10063800F80A7802031C3F2BF8012708260403193F
:100648002B2B0130A6020030031CA703A7022908A0
:1006580028040319352B0130A8020030031CA90314
:10066800A9027708760403193F2B0130F6020030FF
:10067800031CF703F7020D1D642B01300D117623BF
:100688008A116B238A1183124608043A031D542BDE
:100698006B238A1171088312A5007008A400642BCB
:1006A800460B5E2B6B238A1171088312A300700816
:1006B800A200642B6B2371088312A1007008A000AC
:1006C80075088A00740E8300FE0E7E0E09001E084F
:1006D800F300F20183161E08F2047308F100720891
:1006E800F0000800F000F90008007908003A031942
:1006F8000800003096238A114608043A031D882B07
:100708000330C3000430912B460B8E2B0330C300FB
:100718000130912B0330C3000E309B238A11B02B7C
:100728007908080083120313C300F9000800C50004
:100738009F01C4000310C40D0310440D9F04430817
:10074800C400C40CC40C440CC03983169F04831223
:100758001F1483160D15080083129F140800061035
:100768000510851005118511831603178713831249
:1007780003138513BF2BC4238A11C7238A11CA2BDD
:10078800A601A7010800A801A9010800F601F701C0
:10079800080083120617831603170817831203131A
:1007A800051085100511851106108614051385138B
:1007B80083160317871308002030F601F701F801A4
:1007C800F901FA018313840043308A1141240E3061
:1007D800C60083018A110D288A11E9288A11EC289C
:1007E8008A11F5288A11FB288A1101298A110729FB
:0407F8008A11112928
:100800008A1125298A1128298A1131298A11372923
:100810008A113D298A1143298A114C298A115F299D
:100820008A1163298A116C298A1172298A117829FF
:100830008A118029023083129C00A0309D008030F4
:100840009B008316861586120800CF3003138F0095
:100850002C308E00E130900083160C14080029081B
:100860002804031D08004408A9004308A800080044
:1008700027082604031D08004408A7004308A60013
:10088000080064008001840A040603190034040689
:10089000422C10309C009D0080309B0085138617F1
:1008A000080080308312031788008801881F080021
:1008B000562C2908280403190134003477087604DB
:1008C0000319013400342508C4002408C3000800BB
:1008D000270826040319013400342308C400220821
:1008E000C30008002108C4002008C30008000A3023
:1008F0007A0203180134003407140F3088000715FA
:1009000008001430F600F70108008B170B170800D9
:04091000FA010800E0
:06400000FF2FDE3FF83F38
:00000001FF
