:040000008A11112828
:10000800FE00030EF9000408FA000A08FB00831238
:1000180003137F08FC008A11252B8A113E2D8316B5
:100028000510851005118511061086100513851316
:1000380006138A112B258A1103130615861706162F
:100048008A11AF258A118A1183258A118A11D6252A
:100058008A1103308312A0000E308A11F8248A1105
:100068008A11D1258A118A1178258A118A11A72522
:100078008A118A110D258A1164008A11B6248A1101
:100088008A11CC258A11003A031940288A11D925EA
:100098008A11092B8A110B248A11073048029F30D4
:1000A80003194702031C5A28EB0A5B28EB016B086B
:1000B80003194028EB018312D401D40A4028EA0826
:1000C800031D6828EA0A4028EA018A110B248A11CC
:1000D800073048029F3003194702031C7528023075
:1000E800B8288A1110258A1140280530051766029C
:1000F80003188028E60A40280330E601B8288A1148
:1001080004248A1100304802823003194702031878
:100118008F28DE019028DE0A5E080319962804302D
:10012800DE01B8288A1104248A110030480275308B
:10013800031947020318A228E70AA328E70167085A
:10014800031940280830E701B828B430A000A101FD
:100158008A1196258A110530B8288A11C7258A116F
:10016800003A0319452A0930D40040288A11C225CB
:100178008A118312D501D50A40288A11FD238A11D4
:10018800073048027730031947020318CD28D601F3
:10019800F4288A11FD238A11083048021330031904
:1001A80047020318DA28D601D60AF4288A11FD2353
:1001B8008A11083048029C30031947020318E628C0
:1001C8000230F3288A11FD238A11093048022430AD
:1001D800031947020318F2280330F3280430D60025
:1001E8000230322A0614D70A402805305F02031C61
:1001F80000290514DF01F728DF0A402805305F02CF
:10020800031C00298514FE2805305F02031C002901
:100218000515FE2805305F02031C00298515FE28F8
:1002280005305F02031C0029061005108510051112
:100238008511FE2802305F02031C0029DF01D70167
:100248000330322A57088400073004020318402874
:1002580005308A000310040D503E82000614D80AA7
:10026800402805306002031C3C290514E0013329AD
:10027800E00A402805306002031C3C2985143A290D
:1002880005306002031C3C2905153A290530600237
:10029800031C3C2985153A2905306002031C3C29BA
:1002A80005108510051185113A2902306002031CDA
:1002B8003C29E001D80124295808840007300402A9
:1002C8000318402805308A000310040D5E3E8200A2
:1002D80006140514D90A402805306102031C772941
:1002E8008514E1016E29E10A402805306102031CEA
:1002F80077290515752905306102031C77298515AD
:10030800752905306102031C7729851005118511AF
:10031800752902306102031C7729E101D9012429DA
:1003280059088400063004020318402805308A0062
:100338000310040D6C3E8200061405148514DA0AB5
:10034800402805306202031CAC290515E201A329E7
:10035800E20A402805306202031CAC298515AA2947
:1003680005306202031CAC2905118511AA29023047
:100378006202031CAC29E201DA0124295A08003A76
:100388000319A029013A0319A529033A0319AE292B
:10039800013A0319B429073A0319BB29622806143C
:1003A800051485140515DB0A402805306302031C73
:1003B800E0298515E301D729E30A402805306302BF
:1003C800031CE0298511DE2902306302031CE029A1
:1003D800E301DB0124295B08003A0319D329013A18
:1003E8000319D929033A0319E229013A0319E8291B
:1003F80062285608003A03192629013A0319602988
:10040800033A03199429013A0319C229073A03192F
:10041800EF2962288A11B7258A11003A0319BD28E5
:100428000317081383120530031306170513640214
:100438000318202AE40A4028E4018A110B248A11AF
:100448000A304802F13003194702031C2D2A0F30E5
:100458002E2A07308316880004308312D5004028DE
:1004680005305C0203183A2ADC0A4028DC0106172A
:1004780083160317081783120313D401D40AD5016E
:1004880040285508003A0319BA28013A0319C12827
:10049800033A0319FD29013A03190E2A073A0319E9
:1004A800342A6228851783163C300317871783126E
:1004B8000313A000A1018A118D258A11D201D20A45
:1004C8004028C8305D020318702ADD0A0614051496
:1004D80085140515851540280230DD01D200402815
:1004E80005138A11BD258A11003A03197D2AD20104
:1004F800B7288A1104248A1100304802823003196F
:1005080047020318892AE8018A2AE80A68080319B1
:10051800992AE80183160317871383120313851397
:100528008A1124258A11D20173288A110B248A1171
:10053800073048029E3003194702031CA52AE90A1E
:10054800A62AE90169080319AB2AE90140288A119A
:1005580010258A115F285208003A0319562A013AD1
:100568000319652A033A0319742A622806108610AB
:1005780005108510051185118316031708138312BA
:10058800031306170513D301D30A40288A110B2435
:100598008A1103304802E930031947020318D62AA2
:1005A800D10AD72AD1010A305102031C402802304F
:1005B800D300D10140288A110B248A110730480240
:1005C8009E3003194702031CEB2AE50AEC2AE501D1
:1005D80003306502031C4028D301E5018A111C255C
:1005E8008A110F3088008A112B258A118312031370
:1005F800D40140285308003A0319BA2A013A0319CA
:10060800CA2A033A0319DF2A62285408003A031950
:100618004E28013A03196328033A03197928013A45
:1006280003198328073A0319A928013A0319B1289D
:100638000D3A0319AF2A013A0319FE2A62288A11D2
:1006480011280C1C4E2B64300C10D00ACD0A4D0218
:10065800031C4E2BCD014A0849040319392B0130DC
:10066800C9020030031CCA03CA024C084B04031910
:10067800432B0130CB020030031CCC03CC02831681
:100688002108200403194E2B0130A0020030031C5E
:10069800A103A10283120D1D752B01300D11EA2350
:1006A8008A116E08043A031D612B82238A1171088E
:1006B800F5007008F4000430732B6E0B6C2B82234A
:1006C8008A117108F5007008F400F601F60A742B17
:1006D80082238A117108F5007008F4000E30F600C4
:1006E8008D237C0883120313FF007B088A007A0895
:1006F8008400790E8300FE0E7E0E09001E08F300AA
:10070800F20183161E08F2047308F1007208F00063
:100718000800760B9F2B0C307D020318992B0310D1
:100728007D0DA23EED23FD0A0800FD0103107D0D9D
:10073800A23EED2308007608043A031DB42B0C30C2
:1007480083126D020318AE2B03106D0DD23EED23FC
:10075800ED0A0800ED0103106D0DD23EED230800EF
:1007680076080E3A031DC92B0C3083126C0203184D
:10077800C32B03106C0DBA3EED23EC0A0800EC0104
:1007880003106C0DD23EED230800FD018312ED012C
:10079800EC01F701F8010310770DA23E84008313E2
:1007A8008001F5238A11F5238A11840A8001F70A4A
:1007B8000319F80A7808803AFF0080307F02031D89
:1007C800E72B0C30770203180800CF2BF000CE007F
:1007D80008008400740883138000840A7508800068
:1007E8000800840A80010310770DD23E840080013E
:1007F8000800D23012242108C8002008C7000800C9
:10080800A23012242108C8002008C7000800BA3006
:1008180012242108C8002008C7000800C200C5012A
:10082800BE01BF01C001C101C301C401831203138A
:100838004208A0248A110310430DA8248A11C20A71
:10084800C20AC30A0319C40A4408803AFF00803068
:100858007F02031D312C0C304302031C1A2C831217
:100868000313C501C601A30145080B3CA200031CE4
:10087800A3032308803A803C031D442C2208460227
:100888000318792C831203130310460D263EA02467
:100898008A11B0248A110008A400840A0008A5005F
:1008A80023082502031D5A2C220824020318772C3A
:1008B8000310460D263E84000008BE00840A000886
:1008C800BF00B0248A110008A200840A0008A3000F
:1008D8000310460DA8248A11B0248A113E0880000E
:1008E800840A3F088000C60A372C83120B30031392
:1008F800C50A4502031C362C0230C6000310460DFB
:10090800263EA0248A112208C0070318C10A23081A
:10091800C1070A30C60A4602031C832C4108A100FD
:100928004008A0000310A10CA00C0310A10CA00CFF
:100938000310A10CA00C0800840083130008A20077
:10094800840A0008A3000800263E840022088000CC
:10095800840A2308800008000310460D023E263E44
:1009680084000800D4248A11003A031908000030D2
:10097800D8248A11DB248A116E08043A031DC82C76
:100988000330A0000430D12C6E0BCE2C0330A00015
:100998000130D12C0330A0000E30F8248A110D2D1F
:1009A800831203134E080800A000CE0008000C3084
:1009B8004F02031808000C30CF0A4F02031C08002E
:1009C800CF016E080E3A031DEC2CEE01EE0A08006A
:1009D8006E08043A031DF32C0E30EE0008006E0B6F
:1009E800F02C0430EE000800A2009F01A1000310C3
:1009F800A10D0310210D9F042008A100A10CA10C3A
:100A0800210CC03983169F0483121F1483160D15F9
:100A1800080083129F1408000610051085100511A0
:100A280085118316031787138312031385131C2D4F
:100A380021258A1124258A11272DC901CA010800F8
:100A4800CB01CC0108008316A001A1010800831284
:100A5800061783160317081783120313051085104A
:100A680005118511061086140513851383160317BF
:100A7800871308004930FD01831384006E308A1102
:100A88009F258A11A0308400EA308A119F250E30F4
:100A9800EE0083018A1113288A11F6288A11F92891
:100AA8008A1102298A1108298A110E298A11142902
:100AB8008A111E298A1132298A1135298A113E295B
:100AC8008A1144298A114A298A1150298A115929D7
:100AD8008A116C298A1170298A1179298A117F292A
:100AE8008A1185298A118D29023083129C00A03031
:100AF8009D0080309B008316861586120800CF3033
:100B080003138F002C308E00E130900083160C14F4
:100B180008004C084B04031D08002108CC002008DD
:100B2800CB0008004A084904031D08002108CA0030
:100B38002008C900080064008001840A040603191B
:100B480000340406A02D10309C009D0080309B00CE
:100B580085138617080080308312031788008801E0
:100B6800881F0800B42D83162108200403190134B6
:100B780000344C084B040319013400341430831634
:100B8800A000A10108004A084904031901340034EF
:100B98000A30500203180134003407140F3088005B
:0E0BA800071508008B170B170800D001080076
:06400000FF2FDE3FF83F38
:00000001FF
