:040000008A110B282E
:10000800FE00030EF4000A08F5008A11C32B8A11BA
:10001800582C8316051085100511851106108610B9
:100028000513851306138A1145248A11031306152F
:10003800861706168A11C7248A118A119B248A11E9
:100048008A11FB248A1103308312D6000E308A11DC
:10005800A1238A118A11F2248A118A1190248A1103
:100068008A11BF248A118A11B6238A1164008A1161
:10007800ED248A11003A03193A288A11FE248A11BC
:100088008A1115238A11F72A8A11E8248A11073060
:1000980057029F3003195602031C5428D50A5528C5
:1000A800D50105305502031C3A28D501C001C00A04
:1000B8003A280330540203186328D40A3A28D40192
:1000C8008A11E8248A11073057029F300319560213
:1000D800031C70280230AC288A112B248A113A2874
:1000E80003300517AC288A11E3248A11003057021F
:1000F80082300319560203188328CA018428CA0AC1
:100108004A0803198A280430CA01AC288A11E32452
:100118008A110030570275300319560203189628C1
:10012800D10A9728D101510803193A280830D1017A
:10013800AC28B430D600D7018A11AE248A11053014
:10014800AC288A11DE248A11003A0319322A0930B0
:10015800C0003A288A11F7248A11C101C10A3A2835
:100168008A11D9248A1107305702773003195602A9
:100178000318C028C201E7288A11D9248A11083037
:1001880057021330031956020318CD28C201C20AB8
:10019800E7288A11D9248A11083057029C3003199C
:1001A80056020318D9280230E6288A11D9248A1160
:1001B800093057022430031956020318E528033082
:1001C800E6280430C20002301F2A0614C30A3A285F
:1001D80005304B02031CF3280514CB01EA28CB0A8F
:1001E8003A2805304B02031CF3288514F128053002
:1001F8004B02031CF3280515F12805304B02031C9C
:10020800F3288515F12805304B02031CF328061046
:100218000510851005118511F12802304B02031CC9
:10022800F328CB01C30103301F2A43088400073099
:10023800040203183A2804308A000310040D683EAB
:1002480082000614C40A3A2805304C02031C2F29E0
:100258000514CC012629CC0A3A2805304C02031C87
:100268002F2985142D2905304C02031C2F2905152B
:100278002D2905304C02031C2F2985152D29053001
:100288004C02031C2F2905108510051185112D29F5
:1002980002304C02031C2F29CC01C4011729440841
:1002A80084000730040203183A2804308A00031037
:1002B800040D763E820006140514C50A3A28053056
:1002C8004D02031C6A298514CD016129CD0A3A28FB
:1002D80005304D02031C6A290515682905304D02B1
:1002E800031C6A298515682905304D02031C6A29F3
:1002F800851005118511682902304D02031C6A29F1
:10030800CD01C501172945088400063004020318E9
:100318003A2804308A000310040D843E8200061433
:1003280005148514C60A3A2805304E02031C9F2975
:100338000515CE019629CE0A3A2805304E02031C2F
:100348009F2985159D2905304E02031C9F290511FB
:1003580085119D2902304E02031C9F29CE01C6013A
:1003680017294608003A03199329013A03199829CD
:10037800033A0319A129013A0319A729073A0319CE
:10038800AE295C280614051485140515C70A3A28F1
:1003980005304F02031CD3298515CF01CA29CF0A7E
:1003A8003A2805304F02031CD3298511D129023080
:1003B8004F02031CD329CF01C70117294708003A68
:1003C8000319C629013A0319CC29033A0319D52977
:1003D800013A0319DB295C284208003A0319192954
:1003E800013A03195329033A03198729013A0319D2
:1003F800B529073A0319E2295C288A11D4248A11FD
:10040800003A0319B128831603170813831203133C
:10041800061705138A11E8248A110A305702F130A9
:1004280003195602031C1A2A0F301B2A0730831699
:10043800880004308312C1003A28053048020318A6
:10044800272AC80A3A28C801061783160317081767
:1004580083120313C001C00AC1013A284108003AB7
:100468000319AE28013A0319B428033A0319F029ED
:10047800013A0319012A073A0319212A5C2885172A
:1004880083163C300317871783120313D600D7014E
:100498008A11A5248A11BE01BE0A3A28C830490229
:1004A80003185D2AC90A061405148514051585154F
:1004B8003A280230C901BE003A2805138A11CF2410
:1004C8008A11003A03196A2ABE01AB288A11E3246B
:1004D8008A11003057028230031956020318762A0F
:1004E800D201772AD20A52080319862AD201831622
:1004F800031787138312031385138A113F248A1164
:10050800BE016E288A11E8248A11073057029E30EE
:1005180003195602031C922AD30A932AD3015308BB
:100528000319982AD3013A288A112B248A115A28A8
:100538003E08003A0319432A013A0319522A033A9A
:100548000319612A5C28061086100510851005110C
:10055800851183160317081383120313061705134F
:10056800BF01BF0A3A288A11E8248A1103305702CA
:10057800E930031956020318C32ABD0AC42ABD016B
:100588000A303D02031C3A280230BF00BD013A2858
:100598008A11E8248A11073057029E30031956023F
:1005A800031CD82AD00AD92AD00103305002031CD0
:1005B8003A28BF01D0018A1137248A110F308316D7
:1005C80088008A1145248A1183120313C0013A282E
:1005D8003F08003A0319A72A013A0319B72A033A30
:1005E8000319CC2A5C28831203134008003A031924
:1005F8004828013A03195D28033A03197428013A77
:1006080003197728073A03199D28013A0319A528E1
:100618000D3A03199C2A013A0319EC2A5C288A111D
:100628000B287908003A03190800003034238A118E
:1006380039238A115B08043A031D262B0330D600A0
:1006480004302F2B5B0B2C2B0330D60001302F2BC3
:100658000330D6000E30A1238A11B62B7908080082
:1006680083120313D600F900080006303C02031871
:1006780008009C238A1103103C0D203E8400560874
:1006880083138000840A57088000BC08031D542B7C
:100698002108B5002008B4002108B7002008B600DA
:1006A800B9238A113502031D5B2B5808340203183D
:1006B800662B03103C0D203E84000008B400840A19
:1006C8000008B500B9238A1137085902031D6E2B9B
:1006D800360858020318792B03103C0D203E84007D
:1006E8000008B600840A0008B7000630BC0A3C02BD
:1006F800031C0800BC015B080E3A031D852B04305F
:100708008D2B5B08043A031D8C2BDB01DB0A8E2B37
:100718000E30DB00DA0103105A0D203E840006304B
:100728008001840A8001DA0A5A02031808008F2B14
:100738003308D7003208D6000800D8009F01D70038
:100748000310D70D0310570D9F045608D700D70C78
:10075800D70C570CC03983169F0483121F148316B5
:100768000D15080083129F14080003103C0D203E4D
:1007780084000008D800840A0008D9000800831201
:1007880003130C1CED2B64300C10FA0AF80A7802DB
:10079800031CED2BF801390838040319D92B013053
:1007A800B8020030031CB903B9023B083A04031924
:1007B800E32B0130BA020030031CBB03BB027708ED
:1007C80076040319ED2B0130F6020030031CF70301
:1007D800F7020D1D162C01300D1128248A111D2435
:1007E8008A1171088312B3007008B2005B08043ADA
:1007F800031D062C1D248A1171088312B10070088C
:10080800B000162C5B0B102C1D248A117108831262
:10081800AF007008AE00162C1D2471088312AD00BD
:100828007008AC0075088A00740E8300FE0E7E0EF8
:1008380009001E08F300F20183161E08F20473086B
:10084800F1007208F0000800F000F9000800061036
:100858000510851005118511831603178713831258
:1008680003138513372C3C248A113F248A11422C08
:10087800B801B9010800BA01BB010800F601F70187
:100888000800831206178316031708178312031329
:10089800051085100511851106108614051385139A
:1008A80083160317871308002030F601F701F801B3
:1008B800F901FA018313840056308A11B7240E30E7
:1008C800DB0083018A110D288A11E9288A11EC2896
:1008D8008A11F5288A11FB288A1101298A1107290A
:1008E8008A1111298A1125298A1128298A11312961
:1008F8008A1137298A113D298A1143298A114C29DD
:100908008A115F298A1163298A116C298A1172292F
:100918008A1178298A118029023083129C00A0301C
:100928009D0080309B008316861586120800CF3004
:1009380003138F002C308E00E130900083160C14C6
:1009480008003B083A04031D08005708BB00560876
:10095800BA00080039083804031D08005708B90010
:100968005608B800080064008001840A04060319C8
:1009780000340406B82C10309C009D0080309B0089
:1009880085138617080080308312031788008801B2
:10099800881F0800CC2C3B083A04031901340034A2
:1009A800770876040319013400343108D700300879
:1009B800D6000800390838040319013400342F0818
:1009C800D7002E08D60008002D08D7002C08D6001E
:1009D80008000A307A0203180134003407140F3073
:1009E8008800071508001430F600F70108008B1777
:0809F8000B170800FA010800CA
:06400000FF2FDE3FF83F38
:00000001FF
