:040000008A11112828
:10000800FE00030EF9000408FA000A08FB00831238
:1000180003137F08FC008A1113288A11372D0C1C42
:1000280054280C10DC0AD90AF2208A1164305902CB
:10003800031C5428D90183165B085A0403192A287B
:100048000130DA020030031CDB03DB025F085E04C8
:10005800031934280130DE020030031CDF03DF02FD
:1000680083125408530403193F280130D302003087
:10007800031CD403D40283166108600403194A28B8
:100088000130E0020030031CE103E1025D085C047A
:10009800031954280130DC020030031CDD03DD02A3
:1000A80083120D1D712801300D11EF208A1183165E
:1000B8006F080C3A031D68287E208A117108F50024
:1000C8007008F4000C306F287E208A117108F50042
:1000D8007008F4000D30F6008A207C0883120313A0
:1000E800FF007B088A007A088400790E8300FE0EE0
:1000F8007E0E090083121E08F300F20183161E0803
:10010800F2047308F1007208F000080076080C3A4F
:10011800031D9E2812307D020318982803107D0DB8
:10012800903E0D22FD0A0800FD0103107D0D903E52
:100138000D22080076080D3A031DB32812308312E9
:1001480060020318AD280310600DB43E0D22E00ACA
:100158000800E0010310600DB43E0D220800760887
:100168000E3A031DCE28123083125F020318C828E6
:1001780003105F0D103E8400740883178000840A02
:1001880075088000DF0A0800DF0103105F0DB43E28
:100198000D220800FD018312E001DF01F701F801DB
:1001A8000310770D903E84008317800126228A1160
:1001B80026228A11840A8001F70A0319F80A7808A6
:1001C800803AFF0080307F02031DEC28123077024E
:1001D80003180800D428F000DA000800DD08031D21
:1001E800F728DD0A08009030DD0172218A117108B4
:1001F800D2007008D100013052023930031951027F
:10020800031C1B290530F000F1015108C83EF2001B
:1002180052080318013EFE3EF30048218A11710876
:10022800CE007008CD006107F700770A3929013040
:10023800520238300319510203183A290530F000E8
:100248003830F101F7000130F80051087702F20068
:100258005208031C520A7802F30048218A117108D7
:10026800D0007008CF006102FF3EE100FA30610261
:10027800031C4029F930E1004B306102031846297C
:100288004B30E1006108042AF401F501710870049B
:1002980003196D29F601F60AF11B56290310F00D12
:1002A800F10D4F290310F40DF50D71087302031DAC
:1002B8005F2970087202031C69297008F20271082C
:1002C800031CF303F30274140310F10CF00CF60B87
:1002D80056297508F1007408F0000800C400CB0125
:1002E800C501C601C701C801C901CA0183120313A8
:1002F8004408840083171F228A11490D203E840078
:10030800720883138000840A73088000C40AC40A30
:10031800C90A0319CA0A4A08803AFF0080307F02D6
:10032800031D982912304902031C7A2983120313EA
:10033800CB01CC01F3014B08113CF200031CF30381
:100348007308803A803C031DAB2972084C020318DD
:10035800DF2983120313031015228A112E228A1112
:100368000008F400840A0008F50073087502031DEC
:10037800BF29720874020318DD2903104C0D203EB2
:1003880084000008C500840A0008C6002E228A11CD
:100398001F228A114C0D203E840072088000840AB6
:1003A800730880002E228A1145088000840A4608B6
:1003B8008000CC0A9E29831211300313CB0A4B020A
:1003C800CC01031C9E29CC0A031015228A1172083D
:1003D800C7070318C80A7308C8071130CC0A4C02AB
:1003E800031CE9294808F1004708F0000F30F00E17
:1003F800F10EF0057108F039F0040F30F10508002E
:10040800F0005E0603190800700895007008DE0009
:1004180008008400740883178000840A7508800027
:1004280008004C0D203E840083130008F200840A63
:100438000008F30008000008F200840A0008F3002E
:1004480003100800840A80010310770DB43E84006D
:100458008001080003104C0D023E203E8400080075
:100468008A110F258A118A11E6248A118A11012618
:100478008A118A11E5258A118A11D3258A118A11D0
:1004880005268A110330A0000C308A11C9248A116C
:100498003C30A000A1018A119A258A11F930A000E8
:1004A8004B308A115A258A11F9308316D500640019
:1004B800D50B5B2A5F2A64008A11E2248A11640042
:1004C8008A1194248A118A11F2258A11003A031993
:1004D800632A8A1108268A11BD2B8A11BE258A1122
:1004E800003A03197B2A6330EC00ED01632A8A1174
:1004F800E3238A11003054025B3003195302031CB2
:10050800872AED0A882AED0103306D02031C632A4D
:10051800ED01EC01EC0A632A00308A11EE248A11FD
:1005280001308A11F9248A1100308A1104258A11B0
:100538008A11ED258A11F030A000A1018A118C25BD
:100548008A110230B92B8A11B3258A11003A03198E
:10055800AF2A6330B92B8A11E3238A110030540281
:10056800C830031953020318BB2AEE0ABC2AEE014D
:1005780006306E02031C632A0330EE01B92B8A1180
:10058800FC258A11B430A000A1018A117E258A11A8
:100598000430B92B8A11A8258A11003A031DAD2A07
:1005A8008A11E3238A11003054025530031953028B
:1005B8000318E02AEA0AE12AEA0106306A02031C63
:1005C800632A0530EA01B92B8A11F7258A11783098
:1005D800A000A1018A1170258A1101308A11EE2428
:1005E8008A1100308A11F9248A1101308A110425F0
:1005F8008A110630A12B8A11E3238A115408D900E5
:100608005308D8008A11C9258A11003A031DAD2A5A
:1006180000305902653003195802031C232B00309F
:10062800630206300319620203181D2BE20A03193C
:10063800E30AE401E5018312D701D801252BE20181
:10064800E3010030831663020630031962020030AA
:10065800031C3F2B8A11EE248A1101308A11F924D8
:100668008A1100308A1104258A118316E201E301F8
:10067800E401E501632A59025A30031958020318A4
:10068800502B003065020630031964020318552BFD
:10069800E40A0319E50A552BE401E5018312D701A1
:1006A800D801003083166502063003196402031C62
:1006B800632A01308A11EE248A1100308A11F92444
:1006C8008A1101308A1104258A11003083165902D3
:1006D8001930031958020318762B8312D70A031905
:1006E800D80A792B8312D701D80100305802063076
:1006F80003195702031C632A8A110A268A11632ADE
:1007080000308A11EE248A1100308A11F9248A11E6
:1007180001308A1104258A116430A12B003083121C
:1007280056020A300319550203189E2BD50A0319DD
:10073800D60A632A6530D501D6018316B92B8A11EA
:10074800E3238A115408D7005308D6000030570213
:10075800333003195602031CB32BEB0AB42BEB01FD
:1007680006306B02031C632A6630EC00632AEC0136
:10077800802B83166C08003A0319712A013A031971
:10078800902A033A0319A72A013A0319C32A073AF8
:100798000319CE2A013A0319E82A033A0319FF2A52
:1007A800653A0319842B073A0319922B013A031966
:1007B800A32B033A0319BB2B8F2A8A111128B430B3
:1007C800EA232108D4002008D30008008316CE00AD
:1007D800D101CA01CB01CC01CD01CF01D0018316D3
:1007E80003134E088400831787248A114F0DA63EF1
:1007F8008400220883138000840A23088000CE0A1C
:10080800CE0ACF0A0319D00A5008803AFF00803078
:100818007F02031D112C12304F02031CF32B831689
:100828000313D101D201A3015108113CA200031CFA
:10083800A3032308803A803C031D242C220852027B
:100848000318582C8316031303107D248A118E2451
:100858008A110008A400840A0008A50023082502BC
:10086800031D382C220824020318562C0310520D9D
:10087800A63E84000008CA00840A0008CB008E2423
:100888008A1187248A11520DA63E8400220880000E
:10089800840A230880008E248A114A088000840A6A
:1008A8004B088000D20A172C831611300313D10A83
:1008B8005102D201031C172CD20A03107D248A117D
:1008C8002208CC070318CD0A2308CD071130D20A15
:1008D8005202031C622C4D08A1004C08A0000F30E6
:1008E800A00EA10EA0052108F039A0040F30A10523
:1008F8000800520DA63E840083130008A200840A53
:100908000008A30008000008A200840A0008A30049
:10091800031008000310520D023EA63E8400080092
:10092800AB248A11003A031908000030AF248A1159
:10093800B4248A1183166F080C3A0330A000031DF3
:10094800A72C0C30A82C0D30C9248A11E22C831254
:1009580003135A0808008316A0008312DA0008005F
:1009680012305B02031808001230DB0A5B02031C1A
:100978000800DB0183166F080C3A031DC62C0D30E6
:10098800EF0008000C30EF000800A20083129F015E
:1009980083162208A1000310A10D0310210D831254
:1009A8009F0483162008A100A10CA10C210CC039BA
:1009B8009F0483121F1483160D1508008312031356
:1009C8009F1408000130EE248A110030F9248A119E
:1009D8000130042D8316A00020080319F62C831279
:1009E800861508008312861108008316A0002008C7
:1009F8000319012D83120616080083120612080037
:100A08008316A000200803190C2D831286160800EF
:100A180083128612080022258A11003019258A11AE
:100A2800003027258A1100302F2D0313A00020083D
:100A38000319202D8615080086110800061583164F
:100A4800031708150800A000200803192D2D061605
:100A5800080006120800A00020080319352D861684
:100A68000800861208005330FD01831384006130AA
:100A78008A11DD258A11DA308400EF308A11DD25EC
:100A88008A11903083178400D8308A11DD258A11A5
:100A98001030840034308A11DD2583160C30EF00C5
:100AA80083124B30E10083018A11342AA100F0300F
:100AB80083129705043092008316200892002108BB
:100AC80083129500970183160C300611031708113D
:100AD80083120313970408005D085C04031D0800D3
:100AE800E708031D08002108DD002008DC00E701F5
:100AF800E70A08005F085E04031D0800E808031DF4
:100B080008002108DF002008DE00E801E80A0800E4
:100B18005B085A04031D0800E608031D08002108A5
:100B2800DB002008DA00E601E60A08006108600434
:100B3800031D0800E908031D08002108E10020083A
:100B4800E000E901E90A080083165F085E04031D56
:100B580000346808031900340130E80108008316DE
:100B68005B085A04031D0034660803190034013079
:100B7800E6010800831661086004031D0034690853
:100B8800031900340130E90108005D085C04031D05
:100B980000346708031900340130E7010800CF303A
:100BA80003138F002C308E00E130900083160C1454
:100BB800080064008001840A04060319003404064E
:100BC800DE2D80308312031788008801881F0800F3
:100BD800EA2D8316E001E101E90108000A305C0210
:100BE8000318013400348316DE01DF01E801080030
:100BF8008316DA01DB01E601080083160614861461
:0E0C080008008B170B170800DC0108000A2EED
:06400000FF0FDE3FF83F58
:00000001FF
