:040000008A11112828
:10000800FE00030EF9000408FA000A08FB00831238
:1000180003137F08FC008A11942B8A11B82D8316CC
:100028000510851005118511061086100513861315
:1000380006138A11D1258A1103130615851706168A
:100048008A1145268A118A1133268A118A11762641
:100058008A1103308312A0000E308A1184258A1178
:100068008A1171268A118A1128268A118A114D2629
:100078008A118A1199258A1164008A113F258A11EB
:100088008A1166268A11003A031940288A117926AE
:100098008A11772B8A1187248A11073047029F30EB
:1000A80003194602031C5A28EB0A5B28EB010530AA
:1000B8006B02031C4028EB01CB01CB0A40288A11B4
:1000C80087248A11073047029F3003194602031C10
:1000D80071280230CB00EA0140280330EA0A6A029C
:1000E800031C4028EA018A119C258A114028053002
:1000F8000517630203188228E30A40280330E30146
:10010800EF2A8A117D248A110030470273300319BF
:10011800460203189228D501E00A9428D50AE0017E
:1001280003305502031C9B280430D501B328033043
:100138006002031CB4288A117D248A11003047020A
:100148006930031946020318AB28E60AAC28E60111
:1001580003306602031CB4280830E001E601CB0036
:100168004B08083A0319BC284B08043A031D4028D9
:10017800E601D501E00140285830A0000230A10076
:100188008A110E268A1105308312CB00C901402836
:100198008A1160268A11003A0319942A8312C90821
:1001A800031D942A0930CB00C901C90A40288A11C5
:1001B8006C268A118312CC01CC0A40288A11742437
:1001C8008A11073047027730031946020318EE28D0
:1001D800CD0115298A1174248A1108304702133079
:1001E800031946020318FB28CD01CD0A15298A11E7
:1001F80074248A11083047029C30031946020318F8
:100208000729023014298A1174248A1109304702F7
:100218002430031946020318132903301429043023
:10022800CD00023045290614CE0A40280530560272
:10023800031C21290514D6011829D60A402805309F
:100248005602031C212985141F2905305602031C58
:10025800212905151F2905305602031C212985155A
:100268001F2905305602031C212906100510851088
:10027800051185111F29560803192129D601CE0118
:100288000330CC0040284E088400073004020318CD
:10029800402805308A000310040DE43E820006144D
:1002A800CF0A402805305702031C5D290514D701E1
:1002B8005429D70A402805305702031C5D298514A4
:1002C8005B2905305702031C5D2905155B2905309C
:1002D8005702031C5D2985155B2905305702031C4D
:1002E8005D2905108510051185115B29570803192B
:1002F8005D29D701CF0144294F0884000730040243
:100308000318402805308A000310040DF23E8200CD
:1003180006140514D00A402805305802031C9729F2
:100328008514D8018E29D80A402805305802031CA4
:1003380097290515952905305802031C9729851515
:10034800952905305802031C972985100511851138
:100358009529580803199729D801D001442950082C
:100368008400063004020318402806308A0003106F
:10037800040D1C3E8200061405148514D10A402879
:1003880005305902031CCB290515D901C229D90A00
:10039800402805305902031CCB298515C929053089
:1003A8005902031CCB2905118511C92959080319BC
:1003B800CB29D901D10144295108003A0319BF2991
:1003C800013A0319C429033A0319CD29013A03193B
:1003D800D329073A0319DA29622806140514851463
:1003E8000515D20A402805305A02031CFE29851536
:1003F800DA01F529DA0A402805305A02031CFE29D9
:100408008511FC295A080319FE29DA01D201442969
:100418005208003A0319F129013A0319F729033A56
:100428000319002A013A0319062A62284D08003ADE
:1004380003194729013A03198029033A0319B329F3
:10044800013A0319E029073A03190C2A62288A118C
:100458005A268A11003A0319DE288312E408031D7C
:10046800382A0513E40A4028E508031D432A8316A1
:1004780003170813831203130617E50A40280330ED
:100488005B020318492ADB0A40288A1187248A114B
:100498000A304702F13003194602031C562ADC0AC7
:1004A800DE01582ADE0ADC0103305C02031C5E2AE6
:1004B800DD01DD0A03305E02031C642ADF01DF0A66
:1004C8005D080319692A0F306D2A5F080319722A1B
:1004D80007308316880004308312CC004C08043A95
:1004E800031D4028DC01DE01DD01DF01E501E40137
:1004F800DB014028033067020318842AE70A4028F2
:100508000330530203188E2AD30A061783160317DB
:1005180008174028D301E701CB01CB0ACC014028BA
:1005280083124C08003A0319DB28013A0319E22820
:10053800033A03191A2A013A03192B2A073A03190D
:100548007E2A6228861783163C3003178817831281
:100558000313A000A1018A1100268A118312061430
:100568000514851405158515CA01CA0A4028C8301E
:1005780054020318C12AD40A40280230D401CA0000
:10058800051340288A1154268A11003A0319CF2AE4
:1005980083120930EE2A8A117D248A11003047021D
:1005A8007330031946020318DC2AE801E10ADE2A3F
:1005B800E80AE10105306802031CF12AE801831604
:1005C800031788138312031386138A11B1258A111E
:1005D80083120230CA01CB00402805306102031C97
:1005E80040288A1187248A11073047029E30031950
:1005F8004602031C022BE90AE201042BE901E20A84
:1006080005306902031C0A2BE90140280530620203
:10061800031C40288A119C258A118312CB01CB0A1E
:10062800CA0140284A08003A0319A62A013A0319C0
:10063800BB2A033A0319C62A6228831206108610B9
:1006480005108510051185118316031708138312E9
:100658000313061705138316AA01AA0A40288A114C
:1006680087248A1103304702E93003194602031828
:10067800402B8316A90A422B8316A9010A302902A6
:10068800031C40280230AA00A90140288A118724A7
:100698008A11073047029E3003194602031C572B64
:1006A8008316AB0A592B8316AB0103302B02031CAC
:1006B8004028AA01AB018A11A8258A110F308800A9
:1006C8008A11D1258A1183120313CB016A2B831651
:1006D8002A08003A0319212B013A0319332B033A4C
:1006E80003194A2B622883124B08003A03194E2833
:1006F800013A03196328033A03197B28013A0319BD
:100708008528073A0319C028013A0319CC280D3A5D
:100718000319162B013A03196B2B62288A11112829
:100728000C1CBD2B0C1083166430A80AA60A2602DE
:10073800031CBD2BA601210820040319A92B013095
:10074800A0020030031CA103A102230822040319FC
:10075800B32B0130A2020030031CA303A302250817
:1007680024040319BD2B0130A4020030031CA50387
:10077800A50283120D1DE52B01300D1160248A118D
:1007880083126E08053A031DD12BF2238A117108D2
:10079800F5007008F4000530E32B6E0BDC2BF22318
:1007A8008A117108F5007008F400F601F60AE42BC6
:1007B800F2238A117108F5007008F4000E30F60073
:1007C800FD237C0883120313FF007B088A007A0844
:1007D8008400790E8300FE0E7E0E09001E08F300C9
:1007E800F20183161E08F2047308F1007208F00083
:1007F8000800760B0F2C0C307D020318092C03100F
:100808007D0DAC3E6424FD0A0800FD0103107D0D3A
:10081800AC3E642408007608053A031D242C0C30ED
:1008280083126D0203181E2C03106D0DC43E642440
:10083800ED0A0800ED0103106D0DC43E64240800A4
:1008480076080E3A031D3F2C0C3083126C020318F5
:10085800392C03106C0D903E8400740883178000B7
:10086800840A75088000EC0A0800EC0103106C0D7E
:10087800C43E64240800FD018312ED01EC01F70178
:10088800F8010310770DAC3E8400831380016C24BB
:100898008A116C248A11840A8001F70A0319F80A5C
:1008A8007808803AFF0080307F02031D5D2C0C30F1
:1008B800770203180800452CF0008316A7000800EB
:1008C8008400740883138000840A75088000080077
:1008D800840A80010310770DC43E8400800108005B
:1008E800C430A000A10192242108C7002008C60036
:1008F8000800AC308312A000A10192242108C7008F
:100908002008C600080090308312A0000130A10022
:1009180092242108C7002008C6000800C401BE01AF
:10092800BF01C001C101C201C30183120313200822
:1009380084008317211C8313000833258A11420D74
:10094800263E8400220883138000840A230880003E
:100958000230A0070318A10AC20A0319C30A4308F0
:10096800803AFF0080307F02031DBC2C0C3042020D
:10097800031C992C83120313C401C501A301440865
:100988000B3CA200031CA3032308803A803C031DF0
:10099800CF2C220845020318042D831203130310D9
:1009A80029258A1139258A110008A400840A00081B
:1009B800A50023082502031DE32C2208240203189E
:1009C800022D0310450D263E84000008BE00840A4F
:1009D8000008BF0039258A11000833258A11450D02
:1009E800263E840022088000840A230880003925D6
:1009F8008A113E088000840A3F088000C50AC22C7C
:100A080083120B300313C40A4402031CC12C0230A6
:100A1800C500031029258A112208C0070318C10A36
:100A28002308C1070A30C50A4502031C0E2D4108D8
:100A3800A1004008A0000310A10CA00C0310A10CF9
:100A4800A00C0310A10CA00C0800450D263E840044
:100A580083130008A200840A0008A3000800A2006B
:100A6800840A0008A300031008000310450D023E85
:100A7800263E840008005D258A11003A0319080003
:100A8800003061258A1166258A116E08053A031D12
:100A9800512D0330A00005305A2D6E0B572D033011
:100AA800A00001305A2D0330A0000E3084258A1191
:100AB800992D83160313270808008312A0008316B4
:100AC800A70008000C3083124802031808000C30F5
:100AD800C80A4802031C0800C8016E080E3A031D24
:100AE800782DEE01EE0A08006E08053A031D7F2DE9
:100AF8000E30EE0008006E0B7C2D0530EE0008006D
:100B0800A2009F01A1000310A10D0310210D9F0455
:100B18002008A100A10CA10C210CC03983169F0448
:100B280083121F1483160D15080083129F140800E2
:100B380006100510851005118511831603178813F3
:100B4800831203138613A82DAD258A11B1258A11A6
:100B5800B52D8316A001A10108008316A201A301E7
:100B68000800A401A50108004830FD018313840092
:100B78006E308A113D268A11A0308400DC308A113B
:100B88003D268A11903083178400A8308A113D26AB
:100B98000E30EE0083018A1113288312061783167C
:100BA8000317081783120313051085100511851103
:100BB8000610861405138613831603178813080076
:100BC8008A1117298A111A298A1123298A11292990
:100BD8008A112F298A1135298A113F298A11532907
:100BE8008A1156298A115F298A1165298A116B2968
:100BF8008A1171298A117A29831623082204031D70
:100C08000800831221088316A30083122008831684
:100C1800A2000800831621082004031D080083127F
:100C280021088316A100831220088316A00008005B
:100C38008A118C298A1190298A1199298A119F2948
:100C48008A11A5298A11AD29023083129C00A0308F
:100C58009D0080309B008316861586120800CF30D1
:100C680003138F002C308E00E130900083160C1493
:100C7800080064008001840A04060319003404068D
:100C88003E2E80308312031788008801881F0800D1
:100C98004A2E14309C0010309D0080309B000800C4
:100CA8008316230822040319013400348316250807
:100CB800240403190134003483162108200403197D
:100CC800013400340A308316280203180134003432
:100CD80014308316A400A501080007140F308800FB
:0E0CE800071508008B170B170800A80108005D
:06400000FF2FDE3FF83F38
:00000001FF
