:040000008A110B282E
:10000800FE00030EF4000A08F5008A116C298A1113
:10001800E32983160510851085110511831205152E
:10002800051483160615861406148A112C228A11C3
:100038008A11FF218A118A1157228A1103308312EB
:10004800BF000D308A11CF218A118A1148228A11E6
:100058008A11F3218A118A111B228A118A1102211D
:100068008A11D528B9018A1154228A118A1151227C
:100078008A110619D5288312B70AD52806194628E1
:10008800BB0A4728BB010A303B02031CD528BB0129
:100098003F283D2806195228BC0A5328BC010330C2
:1000A8003C02031CD528BC013F2805113F288A11B2
:1000B8003E228A1100304002293003193F02031CF6
:1000C80077281B30051085148515B8018A114D2233
:1000D8008A118312B908031D3F288A1112228A1136
:1000E800B901B90A3F288A113E228A11003040021C
:1000F800233003193F0203188E2819300514851080
:100108008511B801B80A8A114D228A118A1109226B
:100118008A113F28BD08031D3F28BD01BD0A652877
:100128008A1139228A110038031D3F280530B7008B
:10013800D5288A1134228A110038031D3F288A11D4
:100148003E228A1100304002293003193F02031869
:100158009A28D5283808003A03199428013A03192F
:100168009D28F028193005150510851085118A116C
:100178004D228A113F28061DC328BA0AC428BA018D
:1001880003303A02031CD528BA013F280619CE28A5
:10019800BE0ACF28BE010B303E02031CD528BE0183
:1001A800B70164008A1143228A11003A0319D5283D
:1001B8008A115A228A118A11F1208A118312031393
:1001C800370884000A3004020318D52801308A0051
:1001D8000310040DBB3E8200D5287908003A0319A4
:1001E80008000030FD208A1105218A1102297908AA
:1001F800080083120313BF00F900080083129F143C
:10020800080006303602031808005D218A11031021
:10021800360D203E84003F0883138000840A40087E
:100228008000B608031D20292108B1002008B0006D
:100238002108B3002008B20062218A113102031D8F
:10024800272941083002031832290310360D203EB1
:1002580084000008B000840A0008B10062218A11F5
:1002680033084202031D3A2932084102031845297E
:100278000310360D203E84000008B200840A0008EE
:10028800B3000630B60A3602031C0800B60144085B
:100298000D3A0D30C400C3010310430D203E840005
:1002A80006308001840A8001C30A4302031808004B
:1002B80050292F08C0002E08BF0008000310360D73
:1002C800203E84000008C100840A0008C20008001B
:1002D800831203130C1C8C2964300C10FA0AF80AD8
:1002E8007802031C8C29F8017708760403198229FF
:1002F8000130F6020030031CF703F7023508340416
:1003080003198C290130B4020030031CB503B5026F
:100318000D1DA62901300D11B8218A11AD218A11B0
:1003280071088312AF007008AE0044080C3A031D30
:10033800A029AD218A11A629AD2171088312AD002B
:100348007008AC0075088A00740E8300FE0E7E0EDD
:1003580009001E08F300F20183161E08F204730850
:10036800F1007208F0000800F000F90008008A1196
:1003780036288A1142288A114D288A114E288A1156
:1003880059288A115B288A11AE288A11B6288A1141
:10039800BF288A11CA28C100C0000310C00D03106D
:1003A800400D9F043F08C000C00CC00C400CC03971
:1003B80083169F0483121F1483160D15080020301E
:1003C800F601F701F801F901FA01831384003F30BF
:1003D8008A1124220D30C40083018A110D280230AD
:1003E80083129C00A0309D0080309B0083168615E8
:1003F800061686120800CF3003138F002C308E00AB
:10040800E130900083160C14080030308312B400D9
:100418002A30B500B430B400B50108009830F600B1
:100428008530F7003A30F6000230F70008009C01EA
:10043800A0309D0080309B008513061786170800A2
:1004480064008001840A0406031900340406252A7E
:1004580080308312031788008801881F0800312A1A
:100468003508340403190134003477087604031975
:10047800013400342D08C0002C08BF0008000B30E0
:100488007A020318013400348714193088000715DC
:100498000800BF00831688000800B401B5010800F1
:1004A800F601F70108008B170B170800FA0108007E
:06400000FF2FDE3FF83F38
:00000001FF
