:040000008A11112828
:10000800FE00030EF9000408FA000A08FB00831238
:1000180003137F08FC008A11262B8A113F2D8316B3
:100028000510851005118511061086100513851316
:1000380006138A112C258A1103130615861706162E
:100048008A11B0258A118A1184258A118A11D72527
:100058008A1103308312A0000E308A11F9248A1104
:100068008A11D2258A118A1179258A118A11A8251F
:100078008A118A110E258A1164008A11B7248A11FF
:100088008A11CD258A11003A031940288A11DA25E8
:100098008A110A2B8A110C248A11073048029F30D2
:1000A80003194702031C5A28EB0A5B28EB016B086B
:1000B80003194028EB018312D401D40A4028EA0826
:1000C800031D6828EA0A4028EA018A110C248A11CB
:1000D800073048029F3003194702031C7528023075
:1000E800B9288A1111258A1140280530051766029A
:1000F80003188028E60A40280330E601B9288A1147
:1001080005248A1100304802823003194702031877
:100118008F28DE019028DE0A5E080319962804302D
:10012800DE01B9288A1105248A1100304802753089
:10013800031947020318A228E70AA328E70167085A
:10014800031940280830E701B9285830A0000230C8
:10015800A1008A1197258A110530B9288A11C82566
:100168008A11003A0319462A0930D40040288A1116
:10017800C3258A118312D501D50A40288A11FE2386
:100188008A11073048027730031947020318CE282E
:10019800D601F5288A11FE238A1108304802133047
:1001A800031947020318DB28D601D60AF5288A1155
:1001B800FE238A11083048029C30031947020318AD
:1001C800E7280230F4288A11FE238A1109304802F0
:1001D8002430031947020318F3280330F4280430A5
:1001E800D6000230332A0614D70A402805305F02A9
:1001F800031C01290514DF01F828DF0A402805300F
:100208005F02031C01298514FF2805305F02031CC7
:1002180001290515FF2805305F02031C01298515F2
:10022800FF2805305F02031C012906100510851000
:1002380005118511FF2802305F02031C0129DF0127
:10024800D7010330332A5708840007300402031803
:10025800402805308A000310040D513E8200061420
:10026800D80A402805306002031C3D290514E00126
:100278003429E00A402805306002031C3D29851412
:100288003B2905306002031C3D2905153B29053033
:100298006002031C3D2985153B2905306002031CBB
:1002A8003D2905108510051185113B290230600292
:1002B800031C3D29E001D80125295808840007308E
:1002C80004020318402805308A000310040D5F3E1D
:1002D800820006140514D90A402805306102031C5F
:1002E80078298514E1016F29E10A40280530610267
:1002F800031C78290515762905306102031C782925
:100308008515762905306102031C782985100511A9
:100318008511762902306102031C7829E101D9018F
:10032800252959088400063004020318402805309E
:100338008A000310040D6D3E82000614051485140E
:10034800DA0A402805306202031CAD290515E201CE
:10035800A429E20A402805306202031CAD2985154C
:10036800AB2905306202031CAD2905118511AB29A3
:1003780002306202031CAD29E201DA0125295A087C
:10038800003A0319A129013A0319A629033A0319C6
:10039800AF29013A0319B529073A0319BC2962287C
:1003A8000614051485140515DB0A40280530630278
:1003B800031CE1298515E301D829E30A4028053003
:1003C8006302031CE1298511DF2902306302031C43
:1003D800E129E301DB0125295B08003A0319D42947
:1003E800013A0319DA29033A0319E329013A0319EF
:1003F800E92962285608003A03192729013A0319FE
:100408006129033A03199529013A0319C329073ABF
:100418000319F02962288A11B8258A11003A0319AC
:10042800BE28031708138312053003130617051394
:1004380064020318212AE40A4028E4018A110C24E2
:100448008A110A304802F13003194702031C2E2A88
:100458000F302F2A07308316880004308312D50006
:10046800402805305C0203183B2ADC0A4028DC01DE
:10047800061783160317081783120313D401D40A27
:10048800D50140285508003A0319BB28013A031939
:10049800C228033A0319FE29013A03190F2A073A19
:1004A8000319352A6228851783163C3003178717E6
:1004B80083120313A000A1018A118E258A11D2018B
:1004C800D20A4028C8305D020318712ADD0A0614D2
:1004D800051485140515851540280230DD01D20064
:1004E800402805138A11BE258A11003A03197E2A6D
:1004F800D201B8288A1105248A11003048028230B6
:100508000319470203188A2AE8018B2AE80A6808AF
:1005180003199A2AE8018316031787138312031312
:1005280085138A1125258A11D20173288A110C2472
:100538008A11073048029E3003194702031CA62A75
:10054800E90AA72AE90169080319AC2AE901402840
:100558008A1111258A115F285208003A0319572A6F
:10056800013A0319662A033A0319752A6228061004
:1005780086100510851005118511831603170813B9
:100588008312031306170513D301D30A40288A11CF
:100598000C248A1103304802E93003194702031872
:1005A800D72AD10AD82AD1010A305102031C40287F
:1005B8000230D300D10140288A110C248A11073057
:1005C80048029E3003194702031CEC2AE50AED2A6B
:1005D800E50103306502031C4028D301E5018A11B7
:1005E8001D258A110F3088008A112C258A11831243
:1005F8000313D40140285308003A0319BB2A013ACF
:100608000319CB2A033A0319E02A62285408003A4E
:1006180003194E28013A03196328033A0319792864
:10062800013A03198328073A0319A928013A03193B
:10063800B2280D3A0319B02A013A0319FF2A622891
:100648008A1111280C1C4F2B64300C10D00ACD0ACB
:100658004D02031C4F2BCD014A08490403193A2BBC
:100668000130C9020030031CCA03CA024C084B04FB
:100678000319442B0130CB020030031CCC03CC02FD
:1006880083162108200403194F2B0130A0020030E3
:10069800031CA103A10283120D1D762B01300D113D
:1006A800EB238A116E08043A031D622B83238A11F7
:1006B8007108F5007008F4000430742B6E0B6D2B74
:1006C80083238A117108F5007008F400F601F60A10
:1006D800752B83238A117108F5007008F4000E3019
:1006E800F6008E237C0883120313FF007B088A0020
:1006F8007A088400790E8300FE0E7E0E09001E081B
:10070800F300F20183161E08F2047308F100720860
:10071800F0000800760BA02B0C307D0203189A2BF2
:1007280003107D0DA23EEE23FD0A0800FD01031013
:100738007D0DA23EEE2308007608043A031DB52B72
:100748000C3083126D020318AF2B03106D0DD23ECF
:10075800EE23ED0A0800ED0103106D0DD23EEE23E5
:10076800080076080E3A031DCA2B0C3083126C025F
:100778000318C42B03106C0DBA3EEE23EC0A0800D4
:10078800EC0103106C0DD23EEE230800FD0183122C
:10079800ED01EC01F701F8010310770DA23E84008A
:1007A80083138001F6238A11F6238A11840A8001B3
:1007B800F70A0319F80A7808803AFF0080307F02A8
:1007C800031DE82B0C30770203180800D02BF0002B
:1007D800CE0008008400740883138000840A75081A
:1007E80080000800840A80010310770DD23E84003F
:1007F80080010800D23013242108C8002008C7004F
:100808000800A23013242108C8002008C7000800E7
:10081800BA3013242108C8002008C7000800C20005
:10082800C501BE01BF01C001C101C301C4018312DA
:1008380003134208A1248A110310430DA9248A1125
:10084800C20AC20AC30A0319C40A4408803AFF004C
:1008580080307F02031D322C0C304302031C1B2CFA
:1008680083120313C501C601A30145080B3CA2006E
:10087800031CA3032308803A803C031D452C22084F
:10088800460203187A2C831203130310460D263EE2
:10089800A1248A11B1248A110008A400840A00083E
:1008A800A50023082502031D5B2C22082402031837
:1008B800782C0310460D263E84000008BE00840AEA
:1008C8000008BF00B1248A110008A200840A0008A9
:1008D800A3000310460DA9248A11B1248A113E08E9
:1008E8008000840A3F088000C60A382C83120B3027
:1008F8000313C50A4502031C372C0230C600031037
:10090800460D263EA1248A112208C0070318C10AF1
:100918002308C1070A30C60A4602031C842C410872
:10092800A1004008A0000310A10CA00C0310A10C0A
:10093800A00C0310A10CA00C08008400831300086D
:10094800A200840A0008A3000800263E84002208AA
:100958008000840A2308800008000310460D023E28
:10096800263E84000800D5248A11003A031908009D
:100978000030D9248A11DC248A116E08043A031D38
:10098800C92C0330A0000430D22C6E0BCF2C0330BE
:10099800A0000130D22C0330A0000E30F9248A11B7
:1009A8000E2D831203134E080800A000CE00080085
:1009B8000C304F02031808000C30CF0A4F02031CFA
:1009C8000800CF016E080E3A031DED2CEE01EE0A69
:1009D80008006E08043A031DF42C0E30EE000800DF
:1009E8006E0BF12C0430EE000800A2009F01A1005C
:1009F8000310A10D0310210D9F042008A100A10CD4
:100A0800A10C210CC03983169F0483121F1483166E
:100A18000D15080083129F14080006100510851094
:100A28000511851183160317871383120313851382
:100A38001D2D22258A1125258A11282DC901CA01B3
:100A48000800CB01CC0108008316A001A101080011
:100A5800831206178316031708178312031305104A
:100A68008510051185110610861405138513831644
:100A78000317871308004930FD01831384006E3083
:100A88008A11A0258A11A0308400EA308A11A02595
:100A98000E30EE0083018A1113288A11F7288A1173
:100AA800FA288A1103298A1109298A110F298A111A
:100AB80015298A111F298A1133298A1136298A1181
:100AC8003F298A1145298A114B298A1151298A11EE
:100AD8005A298A116D298A1171298A117A298A114C
:100AE80080298A1186298A118E29023083129C0056
:100AF800A0309D0080309B00831686158612080062
:100B0800CF3003138F002C308E00E1309000831615
:100B18000C1408004C084B04031D08002108CC00E5
:100B28002008CB0008004A084904031D08002108D2
:100B3800CA002008C900080064008001840A04066D
:100B4800031900340406A12D10309C009D0080304C
:100B58009B008513861708008030831203178800CE
:100B68008801881F0800B52D831621082004031961
:100B7800013400344C084B04031901340034143098
:100B88008316A000A10108004A084904031901348A
:100B980000340A30500203180134003407140F30AF
:100BA8008800071508008B170B170800D0010800EC
:06400000FF2FDE3FF83F38
:00000001FF
