:040000008A11112828
:10000800FE00030EF9000408FA000A08FB00831238
:1000180003137F08FC008A1113288A114B2D0C1C2E
:10002800512864300C10D10AC90A4902031C51280E
:10003800C9013E083D04031927280130BD020030DC
:10004800031CBE03BE0242084104031931280130D3
:10005800C1020030031CC203C20283162108200417
:1000680003193C280130A0020030031CA103A1029F
:10007800831244084304031947280130C30200309F
:10008800031CC403C40240083F040319512801306B
:10009800BF020030031CC003C0020D1D6C280130D4
:1000A8000D1184208A1159080C3A031D6328792000
:1000B8008A117108F7007008F6000C306A28792058
:1000C8008A117108F7007008F6000D30F8008720D3
:1000D8007C0883120313FF007B088A007A088400D7
:1000E800790E8300FE0E7E0E09001E08F300F20151
:1000F80083161E08F2047308F1007208F000080065
:10010800F000CA00080078080C3A031D09290330DA
:100118007D020318032903107D0DAC3EE5218A11E9
:10012800FD0A7D08033A031D0800AC30FD015C217F
:100138008A117108C6007008C50048084602031DE8
:10014800A72847084502031CBC284608B0004508F4
:10015800AF004708AF024808031CB003B0024608C6
:10016800ED218A11B1070318B20A3008B207CD2869
:100178004808B0004708AF004508AF024608031C0E
:10018800B003B002ED218A11B1023008031CB2039A
:10019800B202013083162B02913003192A02031C84
:1001A800DA2890308312B1000130B2008312460879
:1001B800C8004508C700013032023930031931023E
:1001C800031CE828DA0AEF28013032023830031914
:1001D8003102031CDA03FA305A02031CF528F930FD
:1001E800DA004B305A020318FB284B30DA004F086C
:1001F800013A031D01299630DA005A08E229FD0167
:1002080003107D0DAC3EE521080078080D3A031D6A
:100218001E29033083125702031818290310570D9B
:10022800B23EE521D70A0800D7010310570DB23EA8
:10023800E521080078080E3A031D3329033083129C
:10024800580203182D290310580DB83EE521D80A85
:100258000800D8010310580DB23EE5210800FD0141
:100268008312D701D801B301B40183120313031019
:10027800330DAC3E8400831311228A11B23E8400F0
:1002880011228A11B83E84008001840A8001B30AD1
:100298000319B40A3408803AFF0080307F02031D36
:1002A8005729033033020318080039294F0808007A
:1002B8008312A400AD01A001A101A201A301AB0119
:1002C800AC01831203132408FB218A1103102B0DA0
:1002D80003228A11A40AA40AAB0A0319AC0A2C083F
:1002E800803AFF0080307F02031D7C2903302B02F7
:1002F800031C652983120313AD01AE01F3012D0818
:10030800023CF200031CF3037308803A803C031D8F
:100318008F2972082E020318C429831203130310AD
:100328002E0D253EFB218A110B228A110008F400AC
:10033800840A0008F50073087502031DA5297208D0
:1003480074020318C22903102E0D253E84000008EC
:10035800A000840A0008A1000B228A110008F200FC
:10036800840A0008F30003102E0D03228A110B22C1
:100378008A1120088000840A21088000AE0A822998
:10038800831202300313AD0A2D02AE01031C822929
:10039800AE0A03102E0D253EFB218A117208A20712
:1003A8000318A30A7308A3070230AE0A2E02031C1F
:1003B800CE292308F1002208F0000800F00095007B
:1003C80008008400760883138000840A7708800078
:1003D8000800B2004508B1004708B1070318B20A7F
:1003E8004808B2070310B20CB10C2F0808008400AB
:1003F80083130008F200840A0008F3000800253E71
:10040800840072088000840A7308800008000310C2
:100418002E0D023E253E840008008001840A8001DA
:100428000310330D08008A11E2248A118A1113255A
:100438008A118A11EA258A118A11D2258A118A110C
:10044800C0258A118A11F1258A1103308312B5005B
:100458000C308A11C3248A113C308312B500B601CE
:100468008A1189258A11F9308316CD006400CD0BD5
:100478003A2A3E2A64008A11DE248A1164008A110D
:1004880092248A118A11E6258A11003A0319422A10
:100498008A11F4258A11B52B8A11B6258A11003ADA
:1004A80003195A2A6330D400D501422A8A11DA2363
:1004B8008A1100303C025B3003193B02031C662A98
:1004C800D50A672AD5011E305502031C422AD501D8
:1004D800D401D40A422AF930B50096308A1136255B
:1004E8008A1100308A111B258A1101308A112425AE
:1004F8008A110E308316CD00CD0B802A832A003056
:100508008A112C258A118A11E2258A11F030B5004A
:10051800B6018A117B258A110230B12B8A11AC25CC
:100528008A11003A03199A2A6330B12B8A11DA2307
:100538008A1100303C02C83003193B020318A62A6E
:10054800D60AA72AD6010A305602031C422A0330CB
:10055800D601B12B8A11DE258A11B430B500B60157
:100568008A116D258A110430B12B8A11A2258A11AE
:10057800003A031D982A8A11DA238A1100303C02B6
:100588004B3003193B020318CB2AD20ACC2AD201DA
:100598000A305202031C422A0530D201B12B8A11BB
:1005A800DA258A117830B500B6018A115F258A11DB
:1005B80001308A111B258A1100308A1124258A11DD
:1005C80001308A112C258A110630B12B8A11DA23C1
:1005D8008A113C088316D10083123B088316D00089
:1005E8008A1197258A11003A031D982A003083162C
:1005F8005102563003195002031C112B00302502FA
:100608000B300319240203180C2BA40A0319A50A9A
:10061800A801A901A601A701132BA401A501003077
:1006280025020B30031924020030031C2C2B8A11DD
:100638001B258A1101308A1124258A1100308A115C
:100648002C258A118316A401A501A801A901422A13
:1006580051024B300319500203183D2B0030290278
:100668000B30031928020318412BA80A0319A90AF9
:10067800412BA801A901A601A701003029020B30CE
:1006880003192802031C422A01308A111B258A11EA
:1006980000308A1124258A1101308A112C258A11EB
:1006A8000030831651021930031950020318602BC9
:1006B800A60A0319A70A622BA601A7010030270280
:1006C800333003192602031C422A8A11F6258A119F
:1006D800422A00308A111B258A1100308A112425EC
:1006E8008A1101308A112C258A1101308A11EE25D0
:1006F8008A11F930B50096308A1136258A1164308E
:10070800B12B003083162302333003192202031859
:10071800912BA20A0319A30A422A6530A201A30158
:100728008312B12B8A11DA238A113C088316CF0071
:1007380083123B088316CE0000304F023330031972
:100748004E02031CAA2B8312D30AAC2B8312D301AB
:1007580032305302031C422A6630D400422AD401A4
:10076800692B5408003A0319502A013A03196F2AD1
:10077800033A0319922A013A0319AE2A073A0319D0
:10078800B92A013A0319D32A033A0319EA2A653A1E
:1007980003196D2B073A0319852B013A0319962B78
:1007A800033A0319B32B6E2A8A111128B230E123B8
:1007B8003608BC003508BB0008008316BE00CB0114
:1007C800BF01C001C101C201C901CA0183160313D7
:1007D8003E088400831376248A1183160310490D7A
:1007E80082248A11BE0ABE0AC90A0319CA0A4A081B
:1007F800803AFF0080307F02031D042C0330490239
:10080800031CEA2B83160313CB01CC018312B80116
:1008180083164B08023C8312B700031CB803380840
:10082800803A803C031D1B2C370883164C020318A2
:10083800522C8316031303107D248A1176248A11FF
:1008480083168C248A1100088312B900840A0008D0
:10085800BA0038083A02031D332C37083902031846
:100868004F2C831603104C0DC33E84000008BF00B4
:10087800840A0008C0008C248A1176248A11831601
:1008880003104C0D82248A118C248A113F088000A1
:10089800840A400880008316CC0A0A2C831602308A
:1008A8000313CB0A4B02CC01031C0A2CCC0A0310FD
:1008B8007D248A1176248A1137088316C107031804
:1008C800C20A831238088316C2070230CC0A4C02C7
:1008D800031C5C2C42088312B6008316410883125D
:1008E800B500080000088312B700840A0008B800A1
:1008F80008004C0DC33E840083130800C33E8400E7
:10090800831237088000840A38088000831608009C
:1009180003104C0D023EC33E84000800A8248A112F
:10092800003A031908000030AC248A11AF248A1158
:1009380059080C3A0330B500031DA42C0C30A52C23
:100948000D30C3248A11DE2C831203134A080800D1
:10095800B500CA000800033050020318080003302D
:10096800D00A5002031C0800D00159080C3A031D94
:10097800C02C0D30D90008000C30D9000800B70091
:1009880040309F003708B6000310B60D0310360D2F
:100998009F04353083169F0083123508B600B60CC5
:1009A800B60C360CC03983169F0483121F148316A5
:1009B8000D150800831203139F140800F8248A11E8
:1009C8000030EC248A110030FD248A110030082DF3
:1009D80083120313B50035080319F52C8316861501
:1009E80008008316861108000615831603170815D4
:1009F80008008312B50035080319052D831606165D
:100A080008008316061208008312B500350803197A
:100A1800102D8316861608008316861208000130EA
:100A28001B258A11003024258A1101302C2D8312B0
:100A3800B50035080319222D86150800861108000F
:100A4800B500350803192A2D0616080006120800F5
:100A580083120313B50035080319342D86160800D0
:100A680086120800B600F030970504309200350869
:100A780083169200831236089500970183160C306E
:100A880006110317081183120313970408003D3059
:100A9800FD018313840059308A11CA258A11A030B8
:100AA8008400BE308A11CA250C30D9004B30DA00D8
:100AB80083018A11172A40083F04031D0800CC0847
:100AC800031D08003608C0003508BF00CC01CC0A59
:100AD800080042084104031D0800CD08031D080052
:100AE8003608C2003508C100CD01CD0A08003E080D
:100AF8003D04031D0800CB08031D08003608BE008E
:100B08003508BD00CB01CB0A080044084304031D87
:100B18000800CE08031D08003608C4003508C300C5
:100B2800CE01CE0A0800831240083F04031D00349A
:100B38004C08031900340130CC0108004208410474
:100B4800031D00344D08031900340130CD0108009D
:100B58003E083D04031D00344B08031900340130DE
:100B6800CB01080044084304031D00344E08031950
:100B780000340130CE010800CF3003138F002C3031
:100B88008E00E130900083160C1408006400800188
:100B9800840A0406031900340406CB2D803083121E
:100BA800031788008801881F0800D72DC101C201DA
:100BB800CD010800BD01BE01CB010800C301C4017D
:100BC800CE0108005108031D0134003483160614B1
:100BD80086140800B500CF0008008B170B17080013
:060BE800D1010800F62D0A
:06400000FF0FDE3FF83F58
:00000001FF
