:040000008A11112828
:10000800FE00030EF9000408FA000A08FB00831238
:1000180003137F08FC008A117E2B8A11A22D8316F8
:100028000510851005118511061086100513851316
:1000380006138A11BB258A1103130615861706169F
:100048008A1137268A118A111D268A118A1161267A
:100058008A1103308312A0000E308A116E258A118E
:100068008A115C268A118A1112268A118A112F2672
:100078008A118A1183258A1164008A1129258A1117
:100088008A1151268A11003A031940288A116426D8
:100098008A111E308312650203185428E50A622B60
:1000A800E5018610622B8A1171248A1107304702F4
:1000B8009F3003194602031C6328EB0A6428EB01EE
:1000C80005306B02031C4028EB018312CA01CA0ADF
:1000D80040280330EA0A6A02031C4028EA01023079
:1000E800CB2805300517620203187C28E20A40284D
:1000F8000330E201CB288A1167248A1100304702B5
:1001080073300319460203188C28D401DF0A8E289D
:10011800D40ADF0105305402031C95280430D401A9
:10012800AD2805305F02031CAE288A1167248A11A6
:10013800003047026930031946020318A528E60A69
:10014800A628E60105306602031CAE280830DF0148
:10015800E601CA004A08083A0319B6284A08043AC8
:10016800031D4028E601D401DF0140285830A000D3
:100178000230A1008A11F8258A110530CA288A118F
:100188004B268A11003A0319852A09308312CA00BE
:1001980040288A1157268A118312CB01CB0A40289E
:1001A8008A115E248A110730470277300319460204
:1001B8000318E028CC0107298A115E248A11083027
:1001C80047021330031946020318ED28CC01CC0A64
:1001D80007298A115E248A11083047029C300319C6
:1001E80046020318F928023006298A115E248A116A
:1001F8000930470224300319460203180529033041
:1002080006290430CC00023038290614CD0A4028CB
:1002180005305502031C13290514D5010A29D50AEE
:10022800402805305502031C13298514112905306F
:100238005502031C13290515112905305502031C05
:1002480013298515112905305502031C1329061099
:100258000510851005118511112902305502031C5E
:100268001329D501CD010330CB0040284D08840067
:10027800073004020318402805308A000310040DD3
:10028800CE3E82000614CE0A402805305602031CD2
:1002980050290514D6014729D60A402805305602A8
:1002A800031C502985144E2905305602031C502979
:1002B80005154E2905305602031C502985154E296F
:1002C80005305602031C50290510851005118511AB
:1002D8004E2902305602031C5029D601CE01372977
:1002E8004E088400073004020318402805308A00AD
:1002F8000310040DDC3E820006140514CF0A4028C2
:1003080005305702031C8B298514D7018229D70A87
:10031800402805305702031C8B290515892905300B
:100328005702031C8B298515892905305702031CA0
:100338008B29851005118511892902305702031C64
:100348008B29D701CF0137294F08840006300402D2
:100358000318402806308A000310040D063E820068
:10036800061405148514D00A402805305802031CC9
:10037800C0290515D801B729D80A402805305802E0
:10038800031CC0298515BE2905305802031CC02945
:1003980005118511BE2902305802031CC029D80155
:1003A800D00137295008003A0319B429013A031932
:1003B800B929033A0319C229013A0319C829073A86
:1003C8000319CF296C280614051485140515D10ABC
:1003D800402805305902031CF4298515D901EB2959
:1003E800D90A402805305902031CF4298511F2293D
:1003F80002305902031CF429D901D10137295108C7
:10040800003A0319E729013A0319ED29033A0319B8
:10041800F629013A0319FC296C284C08003A0319FB
:100428003A29013A03197429033A0319A829013A08
:100438000319D629073A0319032A6C288A11452675
:100448008A11003A0319D0288312E308031D2F2AC2
:100458000513E30A4028E408031D3A2A8316031704
:100468000813831203130617E40A402803305A02BC
:100478000318402ADA0A4028DA01E401E3018A1164
:1004880071248A110A304702F13003194602031C0D
:10049800502ADB0ADD01522ADD01DB0A03305B0248
:1004A800031C582ADC01DC0A5C0803195D2A0F309A
:1004B800612A5E080319662A07308316880004300B
:1004C8008312CB004B08043A031D4028DB01DD01F1
:1004D800DC01DE014028033067020318752AE70AA9
:1004E80040280330E70152020318802AD20A06176F
:1004F8008316031708174028D201CA01CA0ACB017C
:10050800402883124B08003A0319CD28013A0319F1
:10051800D428033A0319112A013A0319222A073A5F
:1005280003196F2A6C28851783163C300317871721
:1005380083120313A000A1018A11EA258A118312EC
:1005480006140514851405158515C901C90A40281E
:10055800C83053020318B22AD30A40280230D30104
:10056800C900051340288A113F268A11003A031949
:10057800C02A8312C901C9288A1167248A11003048
:1005880047028230031946020318CD2AE801E00A1F
:10059800CF2AE80AE00105306802031CE02AE801D6
:1005A8008316031787138312031385138A119B2558
:1005B8008A118312C901732805306002031C402880
:1005C8008A1171248A11073047029E3003194602A6
:1005D800031CF12AE90AE101F32AE901E10A0530DD
:1005E8006902031CF92AE901402805306102031C4D
:1005F80040288A1186258A1169284908003A031972
:10060800972A013A0319AC2A033A0319B72A6C2826
:1006180083120610861005108510051185118316A2
:100628000317081383120313061705138316AA0169
:10063800AA0A40288A1171248A1103304702E93036
:100648000319460203182B2B8316A90A2D2B831690
:10065800A9010A302902031C40280230AA00A90176
:1006680040288A1171248A11073047029E300319E5
:100678004602031C422B8316AB0A442B8316AB019C
:1006880003302B02031C4028AA01AB018A119225D2
:100698008A110F3088008A11BB258A11831203132F
:1006A800CA01402883162A08003A03190C2B013A7C
:1006B80003191E2B033A0319352B6C284A08003AF4
:1006C80003195728013A03196D28033A03197528A5
:1006D800013A03197F28073A0319BA28013A03197E
:1006E800C3280D3A0319012B013A0319562B6C281C
:1006F8008A1111280C1CA72B0C1083166430A80A29
:10070800A60A2602031CA72BA60121082004031908
:10071800932B0130A0020030031CA103A10223087F
:10072800220403199D2B0130A2020030031CA303ED
:10073800A302250824040319A72B0130A4020030C2
:10074800031CA503A50283120D1DCF2B01300D112B
:100758004A248A1183126E08043A031DBB2BDC233A
:100768008A117108F5007008F4000430CD2B6E0B67
:10077800C62BDC238A117108F5007008F400F60115
:10078800F60ACE2BDC238A117108F5007008F400F4
:100798000E30F600E7237C0883120313FF007B0862
:1007A8008A007A088400790E8300FE0E7E0E090006
:1007B8001E08F300F20183161E08F2047308F10004
:1007C8007208F0000800760BF92B0C307D02031834
:1007D800F32B03107D0DAC3E4E24FD0A0800FD01ED
:1007E80003107D0DAC3E4E2408007608043A031D24
:1007F8000E2C0C3083126D020318082C03106D0D9B
:10080800C43E4E24ED0A0800ED0103106D0DC43EF0
:100818004E24080076080E3A031D292C0C3083124A
:100828006C020318232C03106C0D903E840074088E
:1008380083178000840A75088000EC0A0800EC0120
:1008480003106C0DC43E4E240800FD018312ED0117
:10085800EC01F701F8010310770DAC3E8400831317
:10086800800156248A1156248A11840A8001F70AC5
:100878000319F80A7808803AFF0080307F02031DC8
:10088800472C0C307702031808002F2CF000831631
:10089800A70008008400740883138000840A750880
:1008A80080000800840A80010310770DC43E84008C
:1008B80080010800C430A000A1017C242108C700E1
:1008C8002008C6000800AC308312A000A1017C24D7
:1008D8002108C7002008C600080090308312A00035
:1008E8000130A1007C242108C7002008C6000800A8
:1008F800C401BE01BF01C001C101C201C30183120D
:100908000313200884008317211C831300081D2566
:100918008A11420D263E8400220883138000840A2F
:10092800230880000230A0070318A10AC20A03198D
:10093800C30A4308803AFF0080307F02031DA62CBB
:100948000C304202031C832C83120313C401C5011B
:10095800A30144080B3CA200031CA3032308803A0C
:10096800803C031DB92C220845020318EE2C831283
:100978000313031013258A1123258A110008A400E4
:10098800840A0008A50023082502031DCD2C22088F
:1009980024020318EC2C0310450D263E84000008A1
:1009A800BE00840A0008BF0023258A1100081D25FF
:1009B8008A11450D263E840022088000840A2308F7
:1009C800800023258A113E088000840A3F088000A1
:1009D800C50AAC2C83120B300313C40A4402031C4F
:1009E800AB2C0230C500031013258A112208C0075A
:1009F8000318C10A2308C1070A30C50A4502031CA7
:100A0800F82C4108A1004008A0000310A10CA00C7C
:100A18000310A10CA00C0310A10CA00C0800450D9C
:100A2800263E840083130008A200840A0008A3005D
:100A38000800A200840A0008A3000310080003109D
:100A4800450D023E263E8400080047258A11003ADB
:100A58000319080000304B258A1150258A116E08A9
:100A6800043A031D3B2D0330A0000430442D6E0BC7
:100A7800412D0330A0000130442D0330A0000E307A
:100A88006E258A11832D8316031327080800831205
:100A9800A0008316A70008000C3083124802031830
:100AA80008000C30C80A4802031C0800C8016E0878
:100AB8000E3A031D622DEE01EE0A08006E08043A94
:100AC800031D692D0E30EE0008006E0B662D0430F4
:100AD800EE000800A2009F01A1000310A10D031061
:100AE800210D9F042008A100A10CA10C210CC039E4
:100AF80083169F0483121F1483160D150800831292
:100B08009F1408000610051085100511851183161D
:100B180003178713831203138513922D97258A11C0
:100B28009B258A119F2D8316A001A1010800831619
:100B3800A201A3010800A401A50108004830FD0195
:100B4800831384006E308A1127268A11A03084000E
:100B5800DC308A1127268A11903083178400A83048
:100B68008A1127260E30EE0083018A11132883127A
:100B78000617831603170817831203130510851029
:100B8800051185110610861405138513831603179E
:100B9800871308008A1109298A110C298A11152935
:100BA8008A111B298A1121298A1127298A11312999
:100BB8008A1146298A1149298A1152298A115829E4
:100BC8008A115E298A1164298A116D2983162308DE
:100BD8002204031D0800831221088316A300831230
:100BE80020088316A2000800831621082004031D8C
:100BF8000800831221088316A10083122008831697
:100C0800A00008008A1180298A1184298A118D2957
:100C18008A1193298A1199298A11A12902308312EC
:100C28009C00A0309D0080309B008316861586129C
:100C38000800CF3003138F002C308E00E130900075
:100C480083160C14080064008001840A0406031942
:100C580000340406282E10309C009D0080309B0034
:100C680085138617080080308312031788008801CF
:100C7800881F08003C2E8316230822040319013418
:100C8800003483162508240403190134003483161C
:100C9800210820040319013400340A30831628027D
:100CA80003180134003414308316A400A501080089
:100CB80007140F308800071508008B170B1708005A
:040CC800A801080077
:06400000FF2FDE3FF83F38
:00000001FF
