:040000008A110B282E
:10000800FE00030EF4000A08F5008A11AC2B8A11D1
:100018001F2C8316051085100511851106108610F2
:10002800051385130317081783120313051085108A
:1000380005118515061086100513851383160615F8
:10004800861706168A117C248A118A1162248A115D
:100058008A11BC248A1103308312D5000E308A110C
:100068008A238A118A11B3248A118A1157248A1182
:100078008A1174248A118A119F238A1164008A11B3
:10008800AE248A11003A031942288A11BF248A1122
:100098008A11FE228A11E02A8A11A9248A110730BE
:1000A80056029F3003195502031C5C28D40A5D28A8
:1000B800D40105305402031C4228D401C001C00AEF
:1000C80042288A11A9248A11073056029F30031941
:1000D8005502031C7128D30A7228D3010330530236
:1000E800031C7928D3010230B2288A110A248A1104
:1000F800422803300517B2288A11A4248A11003037
:10010800560282300319550203188C28C9018D281C
:10011800C90A4908031993280430C901B2288A1169
:10012800A4248A11003056027530031955020318A9
:100138009F28D00AA028D001500803194228083067
:10014800D001B2288A119F248A110530B2288A1159
:100158009A248A11003A0319372A0930C000422824
:100168008A11B8248A11C101C10A42288A1195242A
:100178008A11073056027730031955020318C6282A
:10018800C201ED288A1195248A11083056021330CD
:10019800031955020318D328C201C20AED288A118F
:1001A80095248A11083056029C3003195502031809
:1001B800DF280230EC288A1195248A11093056026A
:1001C8002430031955020318EB280330EC280430B7
:1001D800C2000230252A0614C30A422805304A0202
:1001E800031CF9280514CA01F028CA0A4228053058
:1001F8004A02031CF9288514F72805304A02031C13
:10020800F9280515F72805304A02031CF928851531
:10021800F72805304A02031CF92806110510851035
:1002280005118511F72802304A02031CF928CA0172
:10023800C3010330252A4308840007300402031849
:10024800422804308A000310040D2F3E8200061451
:10025800C40A422805304B02031C35290514CB017A
:100268002C29CB0A422805304B02031C352985145A
:10027800332905304B02031C352905153329053070
:100288004B02031C35298515332905304B02031C05
:1002980035290510851005118511332902304B02C7
:1002A800031C3529CB01C4011D29440884000730EB
:1002B80004020318422804308A000310040D3D3E4E
:1002C800820006140514C50A422805304C02031C96
:1002D80070298514CC016729CC0A422805304C02C4
:1002E800031C702905156E2905304C02031C702962
:1002F80085156E2905304C02031C702985100511DF
:1003080085116E2902304C02031C7029CC01C501ED
:100318001D294508840006300402031842280430C9
:100328008A000310040D4B3E820006140514851440
:10033800C60A422805304D02031CA5290515CD0122
:100348009C29CD0A422805304D02031CA529851594
:10035800A32905304D02031CA52905118511A329E0
:1003680002304D02031CA529CD01C6011D294608EE
:10037800003A03199929013A03199E29033A0319E6
:10038800A729013A0319AD29073A0319B4296428A2
:100398000614051485140515C70A422805304E02AF
:1003A800031CD9298515CE01D029CE0A422805304B
:1003B8004E02031CD9298511D72902304E02031C8D
:1003C800D929CE01C7011D294708003A0319CC29AC
:1003D800013A0319D229033A0319DB29013A03190F
:1003E800E12964284208003A03191F29013A031930
:1003F8005929033A03198D29013A0319BB29073AE8
:100408000319E82964288A1190248A11003A0319EB
:10041800B728061705130610051085100511851154
:100428008A11A9248A110F3056023D30031955024A
:10043800031C202A0F30212A073083168800043035
:100448008312C10042280A30480203182D2AC80A1C
:100458004228C80183160317081783120313C00123
:10046800C00AC10142284108003A0319B428013AD8
:100478000319BA28033A0319F629013A0319072A76
:10048800073A0319272A64288316031787178A113E
:1004980084248A11BE01BE0A42288A118B248A113B
:1004A800003A0319592ABE01B1288A11A4248A11D5
:1004B800003056028230031955020318652AD1010B
:1004C800662AD10A51080319702AD10185138A11A5
:1004D80019248A11BE0177288A11A9248A110730A4
:1004E80056029E3003195502031C7C2AD20A7D2A23
:1004F800D20152080319822AD20142288A110A24F9
:100508008A1162283E08003A0319482A013A031959
:10051800512A6428061086100510851005118511CA
:1005280006170513BF01BF0A42288A11A9248A1198
:1005380003305602E930031955020318A52ABD0AEB
:10054800A62ABD010A303D02031C42280230BF0022
:10055800BD0142288A11A9248A11073056029E300B
:1005680003195502031CBA2ACF0ABB2ACF0103304C
:100578004F02031C4228BF01CF018A1111248A119E
:100588000F3083168800031708178312031305100A
:100598008510051185150610861005138513C001F1
:1005A80042283F08003A03198E2A013A0319992A6A
:1005B800033A0319AE2A6428831203134008003A49
:1005C80003195028013A03196528033A03197D28AD
:1005D800013A03198028073A0319A628013A031992
:1005E800AB280D3A0319862A013A0319D52A64283B
:1005F8008A110B287908003A0319080000301D23D6
:100608008A1122238A115A08043A031D0F2B03303A
:10061800D5000430182B5A0B152B0330D5000130A8
:10062800182B0330D5000E308A238A119F2B7908A6
:10063800080083120313D500F900080006303C02B5
:100648000318080085238A1103103C0D203E8400FE
:10065800550883138000840A56088000BC08031DCF
:100668003D2B2108B5002008B4002108B700200858
:10067800B600A2238A113502031D442B5708340201
:1006880003184F2B03103C0D203E84000008B400D3
:10069800840A0008B500A2238A1137085802031DEE
:1006A800572B360857020318622B03103C0D203EC7
:1006B80084000008B600840A0008B7000630BC0AA7
:1006C8003C02031C0800BC015A080E3A031D6E2B9D
:1006D8000430762B5A08043A031D752BDA01DA0A1E
:1006E800772B0E30DA00D9010310590D203E840013
:1006F80006308001840A8001D90A590203180800CB
:10070800782B3308D6003208D5000800D7009F019F
:10071800D6000310D60D0310560D9F045508D600B9
:10072800D60CD60C560CC03983169F0483121F149E
:1007380083160D15080083129F14080003103C0D42
:10074800203E84000008D700840A0008D80008006A
:10075800831203130C1CCC2B64300C10FA0AF80A11
:100768007802031CCC2BF801770876040319C22BF6
:100778000130F6020030031CF703F7023908380489
:100788000319CC2B0130B8020030031CB903B9029D
:100798000D1DF52B01300D1107248A11FC238A1138
:1007A80071088312B3007008B2005A08043A031D96
:1007B800E52BFC238A1171088312B1007008B00080
:1007C800F52B5A0BEF2BFC238A1171088312AF000B
:1007D8007008AE00F52BFC2371088312AD00700879
:1007E800AC0075088A00740E8300FE0E7E0E0900A8
:1007F8001E08F300F20183161E08F2047308F100C4
:100808007208F0000800F000F90008000610051052
:100818008510051185118513112C16248A111924A8
:100828008A111C2CF601F7010800B801B90108006B
:10083800BA01BB0108002030F601F701F801F901FF
:10084800FA018313840055308A116C240E30DA00C3
:1008580083018A110D288A11EF288A11F2288A113A
:10086800FB288A1101298A1107298A110D298A1161
:1008780017298A112B298A112E298A1137298A11B9
:100888003D298A1143298A1149298A1152298A1135
:1008980065298A1169298A1172298A1178298A1188
:1008A8007E298A118629023083129C00A0309D007F
:1008B80080309B008316861586120800CF300313FC
:1008C8008F002C308E00E130900083160C14080045
:1008D80064008001840A04060319003404066D2CA0
:1008E80010309C009D0080309B00851386170800FF
:1008F80080308312031788008801881F0800812C24
:10090800303083120313B8002A30B90008003908C0
:1009180038040319013400343B083A04031901343C
:1009280000343108D6003008D5000800770876046E
:10093800031901340034C030F600A830F70008006D
:100948002F08D6002E08D50008002D08D6002C0840
:10095800D50008000A307A0203180134003407145D
:100968000F308800071508001430BA00BB010800D2
:0A0978008B170B170800FA010800A6
:06400000FF2FDE3FF83F38
:00000001FF
